:100000000C9438010C9469010C9469010C946901F9
:100010000C9469010C9469010C9469010C946901B8
:100020000C9469010C94DF030C94DF030C94DF0340
:100030000C9469010C9469010C9469010C94690198
:100040000C9469010C9469010C9469010C94690188
:100050000C9469010C9469010C9469010C9495034A
:100060000C9469010C9469010C9469010C94690168
:100070000C9469010C9469010C9469010C94690158
:100080000C9469010C9469010C9469010C94690148
:100090000C9469010C9469010C9469010C94690138
:1000A0000C9469010C9469010C9469010C94690128
:1000B0000C9469010C9469010C9469010C94690118
:1000C0000C9469010C9469010C9469010C94690108
:1000D0000C9469010C9469010C9469010C946901F8
:1000E0000C9469010C94F2020C94E7010C947F02C9
:1000F0000C948C040C946A070C94CB010C94A00112
:100100000C943A020C94ED010C94D9010C948002E9
:100110000C94C1010C94D5010C94BA010C94BE014D
:100120000C94D1010C94DC020C9413030C94C701C1
:100130000C949B010C94F1010C9467020C94B20195
:100140000C94E3010C94B6010C94DF010000210033
:10015000240027002A002D00300033000101000098
:10016000040107010A0100000A0B02090C0D0E0828
:100170000703040100000000000000000000000070
:10018000000000000000000000000000000000006F
:10019000000012111000000000000000000000002C
:1001A000000000000000000000000000000020002F
:1001B0002300260029002C002F003200000100003F
:1001C00003010601090100002200250028002B0080
:1001D0002E003100340002010000050108010B016E
:1001E00005050505070508080808020202020A0AB3
:1001F00008080404040401010101010101010303D1
:10020000030303030303040707070C0C0C0C0C0C7B
:100210000C0C0202020206060606060606060B0B78
:100220000B0B0B0B0B0B01021020200808102040B9
:1002300010204080020102010804020101020408AA
:100240001020408080402010080402018004020138
:100250008040201008040201080402010102040881
:100260001020408001020408102040808C046A079E
:1002700011241FBECFEFD1E2DEBFCDBF00E00CBF27
:1002800012E0A0E0B2E0E0E4FFE000E00BBF02C05B
:1002900007900D92A231B107D9F722E0A2E1B2E0B6
:1002A00001C01D92A938B207E1F711E0C7E3D1E020
:1002B00000E006C021970109802FFE010E948607F9
:1002C000C633D10780E00807A9F70E9473050C9494
:1002D0008E070C940000282F30E0F901EA59FE4FF8
:1002E0009491F901EA5DFD4F449120523E4FF9018E
:1002F0002491222309F435C0992311F191509231B0
:10030000F8F4E92FF0E08827E757FE4F8F4F0C9461
:100310008607BA01BE019B01B201B601A001C1016D
:10032000C701CB01D101D501D901DF01E301A00152
:10033000E701ED01F101809180008F7780938000CB
:10034000E22FF0E0EE0FFF1FEA53FE4FA591B491AC
:100350008FB7F894EC91611148C040954E234C93AF
:100360008FBF0895809180008F7DE8CF80918000BD
:10037000877FE4CF84B58F7784BDE2CF84B58F7D4E
:10038000FBCF8091B0008F778093B000D9CF809160
:10039000B0008F7DF9CF809190008F77809390008F
:1003A000CFCF809190008F7DF9CF80919000877F93
:1003B000F5CF8091A0008F778093A000C1CF80916E
:1003C000A0008F7DF9CF8091A000877FF5CF80912D
:1003D00020018F7780932001B3CF809120018F7D02
:1003E000F9CF80912001877FF5CF4E2BB8CFCF93E7
:1003F000DF9360E08CE00E946B0160E088E00E9487
:100400006B01C7E0D0E060E084E00E946B01809166
:10041000600290E00C2E02C0959587950A94E2F751
:1004200061E080FF60E088E00E946B0161E084E0B1
:100430000E946B01219738F761E08CE0DF91CF914A
:100440000C946B0161E08CE00E945B0461E087E04A
:100450000E945B0461E088E00E945B0461E084E04C
:100460000E945B04109260020E94F70160E087E046
:100470000C946B01AF92BF92CF92DF92EF92FF92FA
:100480000F931F93CF93DF936C017B018B01040FBC
:10049000151FEB015E01AE18BF08C017D10759F058
:1004A0006991D601ED91FC910190F081E02DC6019A
:1004B0001995892B79F7C501DF91CF911F910F9184
:1004C000FF90EF90DF90CF90BF90AF900895209174
:1004D0005402309155022817390771F49091520255
:1004E00080915302981741F0E0915202F0E0EE5EE5
:1004F000FD4F808190E008958FEF9FEF089508955C
:10050000EF92FF920F931F93CF93DF93DC015C96E2
:10051000ED90FC905D97E114F10479F481E090E0B6
:1005200013969C938E93129790E080E0DF91CF9189
:100530001F910F91FF90EF9008955196ED91FC91CE
:10054000529750968C915097982F90950FB75E9632
:100550002C915E97122F127021FD6095F8942081E6
:10056000112319F1282B2083E7012197F1F728E0C7
:10057000462F50E0308160FF1AC0382B3083E701EE
:100580002197F1F7BA0175956795215089F71123E5
:1005900081F08081892380830FBF5C968D919C912F
:1005A0000197F1F781E090E0C1CF2923DCCF392317
:1005B000E5CF9081892BEFCF2091540230915502E5
:1005C0002817390761F4809153022091520290E07C
:1005D000805C9F4F821B91098F739927089590E04B
:1005E00080E0089520915402309155022817390770
:1005F000B9F49091520280915302981789F0E091DA
:100600005202F0E0EE5EFD4F80812091520230E018
:100610002F5F3F4F2F7333272093520290E00895AE
:100620008FEF9FEF089590E080E00895FC018081B6
:10063000823079F018F4813031F00895833079F008
:10064000843099F0089570E0709389006093880079
:10065000089570E070939D0060939C00089570E091
:100660007093A9006093A800089570E070939900BA
:10067000609398000895FC018081823069F028F42D
:1006800023E092E0813051F00895833011F126E0AB
:1006900090E0843019F0089524E091E06230E1F0B8
:1006A000643079F1613009F03FC041E050E0BA01B7
:1006B00001C0660F9A95EAF780916002862B01C00F
:1006C000440F2A95EAF740954823409360020C9422
:1006D000F70127E095E0E2CF41E050E0BA0102C027
:1006E000660F771F9A95E2F7CB0180959091600293
:1006F000892301C0440F2A95EAF7842B8093600276
:10070000E6CF41E050E0FA0102C0EE0FFF1F9A95DC
:10071000E2F7CF0101C0440F2A95EAF7842B8095B8
:10072000909160028923EACF08951F920F920FB62D
:100730000F9211242F933F938F939F93AF93BF9367
:1007400080915C0290915D02A0915E02B0915F0287
:1007500030915B0223E0230F2D3758F50196A11D40
:10076000B11D20935B0280935C0290935D02A09385
:100770005E02B0935F028091570290915802A0915F
:100780005902B0915A020196A11DB11D80935702E2
:1007900090935802A0935902B0935A02BF91AF911F
:1007A0009F918F913F912F910F900FBE0F901F90AF
:1007B000189526E8230F0296A11DB11DD2CF1F92D6
:1007C0000F920FB60F9211240BB60F922F933F93F7
:1007D0004F935F936F937F938F939F93AF93BF9349
:1007E000EF93FF93E0915402F0915502309749F056
:1007F000A685B7858585968D91FF16C09C91892326
:10080000B1F4FF91EF91BF91AF919F918F917F9143
:100810006F915F914F913F912F910F900BBE0F9071
:100820000FBE0F901F9018959C91892351F7A389B3
:10083000B4899C918589809589238C938689978931
:100840000197F1F7608D718DA685B785558538E0E4
:1008500020E0CB010197F1F7822F90E095958795E5
:10086000282F4C91452309F02068315091F7868D4F
:1008700081FD20958091530290E001968F73992716
:1008800030915202381799F0A0915302B0E0AE5E59
:10089000BD4F2C9380935302828D938D0197F1F776
:1008A000A389B4898C919589892B8C93AACF868D45
:1008B0008160868FF1CFCF93DF9390E0FC01EA5DFA
:1008C000FD4F249180529E4FFC0184918823D1F0EA
:1008D00090E0880F991FFC01E45BFE4FA591B49155
:1008E000FC01EA53FE4FC591D49161110EC09FB730
:1008F000F8948C91E22FE0958E238C932881E2234B
:10090000E8839FBFDF91CF9108958FB7F894EC9162
:10091000E22BEC938FBFF6CFCF93DF93109261025F
:1009200010926D0210926C0288EE93E0A0E0B0E0AD
:1009300080936E0290936F02A0937002B093710245
:1009400084E092E090936B0280936A02109281029D
:1009500010928002109283021092820210928502FD
:10096000109284021092870210928602609188028F
:100970006E7F6D7F609388026695617081E0682765
:1009800081E10E946B0161E081E10E945B04E7E389
:10099000F2E0E491E0937A02E1EFF1E0E491F0E03B
:1009A000EE0FFF1FEA53FE4F8591949190937C02C6
:1009B00080937B0260E080E10E945B04809188026A
:1009C00081FD04C061E080E10E946B0180E18093C1
:1009D0007602E6E3F2E0E491E0937702E0EFF1E003
:1009E000E491F0E0EE0FFF1FE455FE4F85919491E6
:1009F000909379028093780284E080936802C2E049
:100A0000C09369020E942202809160028E7B8093D3
:100A100060020E94F70180919000816880939000AD
:100A2000DAE0D0939100109299001092980061E062
:100A300085E00E945B0483E080936602C0936702B6
:100A40000E942202809160028F75809360020E9452
:100A5000F7018091A00081688093A000D093A1004D
:100A60001092A9001092A80061E086E00E945B0449
:100A7000C0936402C09365020E94220280916002CA
:100A80008D7E809360020E94F701809190008960C2
:100A900080939000D093910010929D0010929C0042
:100AA00061E083E00E945B0481E080936202C09376
:100AB00063020E94220280916002837F8093600221
:100AC0000E94F70180918000816880938000D0931C
:100AD0008100109289001092880061E08BE0DF9124
:100AE000CF910C945B04789484B5826084BD84B506
:100AF000816084BD85B5826085BD85B5816085BD19
:100B000080916E00816080936E00109281008091D0
:100B10008100826080938100809181008160809358
:100B20008100809180008160809380008091B1007D
:100B300084608093B1008091B00081608093B000A8
:100B400080919100826080939100809191008160FA
:100B500080939100809190008160809390008091BB
:100B6000A10082608093A1008091A10081608093A8
:100B7000A1008091A00081608093A000809121015C
:100B80008260809321018091210181608093210105
:100B90008091200181608093200180917A0084609F
:100BA00080937A0080917A00826080937A008091AD
:100BB0007A00816080937A0080917A0080688093C7
:100BC0007A001092C1001092850210928402109255
:100BD00083021092820210928102109280028DE9AB
:100BE00091E090938702809386028091760296EF3F
:100BF000980F943048F02EEC280F243028F022EC87
:100C0000280F283008F061C02DEB30E030938102CE
:100C1000209380022BE931E03093830220938202FB
:100C20002CE231E03093850220938402943050F01E
:100C30002EEC280F243030F022EC280FF0E0E0E01A
:100C4000283010F4E8E6F0E02081943028F032EC0F
:100C5000380F383008F4ACC031E0232B943048F022
:100C60009EEC980F943028F08E53F0E0E0E088304E
:100C700010F4E8E6F0E020832091760236EF320FA0
:100C8000343008F497C08EEC820F843008F492C0A0
:100C900082EC820F883008F490C090E080E090935E
:100CA0007E0280937D02343008F08AC02650330BD8
:100CB00081E001C0880F2A95EAF780937F02809136
:100CC0008602909187020197F1F7809184029091BA
:100CD0008502892B49F1E0915402F091550282E09E
:100CE000EA36F80709F1309739F0A389B4899C9165
:100CF0008589809589238C93809188028E7F80934B
:100D0000880210925302109252028AE692E0909367
:100D1000550280935402E0917D02F0917E02808121
:100D200090917F02892B808300E010E08AE692E0B8
:100D30000E94DC0218161906ACF58AE692E00E94C1
:100D4000F202C82F8093560260E088E692E00E948B
:100D5000160364E088E692E00E943B0360E086E6CA
:100D600092E00E94160364E086E692E00E943B0354
:100D700060E082E692E00E94160364E082E692E080
:100D80000E943B0360E084E692E00E94160364E068
:100D900084E692E00E943B03C634E9F134F5C234A4
:100DA00009F462C00115110509F20E940000BECFCE
:100DB00034E053CF8BE690E072CF8DE690E06FCFBA
:100DC00088E0223309F479CF84E0233309F475CF26
:100DD00082E0243309F471CF82EC820F883018F45A
:100DE0002E53330B65CF81E068CFCC3409F461C05A
:100DF000C235C1F668EC88E692E00E94160361E015
:100E000088E692E00E943B0368EC86E692E00E944E
:100E1000160361E039C068EC88E692E00E94160390
:100E200061E088E692E00E943B0368EC86E692E08F
:100E30000E94160361E086E692E00E943B0368ECA4
:100E400082E692E00E94160361E082E692E00E9450
:100E50003B0368EC84E692E00E94160361E084E6BE
:100E600092E00E943B039ECF68EC88E692E00E94ED
:100E7000160362E088E692E00E943B0368EC86E697
:100E800092E00E94160362E086E692E00E943B0335
:100E900068EC82E692E00E94160362E082E692E04D
:100EA0000E943B0368EC84E692E00E94160362E035
:100EB000D6CF68EC88E692E00E94160362E088E6EE
:100EC00092E00E943B0368EC86E692E00E941603E3
:100ED00062E0B1CF84E092E090936B0280936A026B
:100EE00080915402909155028A56924071F4E0919B
:100EF0007D02F0917E02908180917F02809589230E
:100F0000808310925502109254020895EE0FFF1F35
:100F1000881F8BBF0790F691E02D199411E0C7E36D
:100F2000D1E000E006C0802FFE010E9486072196D6
:100F3000011DC833D10780E00807A9F7F894FFCF57
:100F40000000000080023A0213037F02DC02F2027A
:020F5000670236
:00000001FF
