:100000000C941A010C944B010C944B010C944B0171
:100010000C944B010C944B010C944B010C944B0130
:100020000C944B010C944B010C944B010C944B0120
:100030000C944B010C944B010C944B010C944B0110
:100040000C944B010C9446050C944B010C944B0101
:100050000C944B010C944B010C944B010C947204C6
:100060000C944B010C944B010C944B010C944B01E0
:100070000C944B010C944B010C944B010C944B01D0
:100080000C9418050C944B010C944B010C944B01EF
:100090000C944B010C944B010C944B010C944B01B0
:1000A0000C944B010C944B010C94EA040C944B01FE
:1000B0000C944B010C944B010C944B010C94BC041C
:1000C0000C944B010C944B010C944B010C944B0180
:1000D0000C944B010C944B010C944B010C944B0170
:1000E0000C944B010C94D2010C94DA010C949C01F9
:1000F0000C94E8010C94C2010C94B3010C94CC0153
:100100000C94F2010C94C8010C9474050C94D60163
:100110000C94E4010C94A1010C94E0010C94B7013F
:100120000C94EE010C94BB010C94BF0100000A0B6F
:1001300002090C0D0E080703040100000000000076
:1001400000000000000000000000000000000000AF
:10015000000000000000000012111000000000006C
:10016000000000000000000000000000000000008F
:10017000000000002200250028002B002E00310086
:10018000340002010000050108010B0100002100FC
:10019000240027002A002D00300033000101000058
:1001A000040107010A0105050505070508080808F7
:1001B000020202020A0A08080404040401010101FF
:1001C00001010101030303030303030304070707FA
:1001D0000C0C0C0C0C0C0C0C02020202060606069F
:1001E000060606060B0B0B0B0B0B0B0B010210206C
:1001F000200808102040102040800201020108045D
:1002000002010102040810204080804020100804F0
:100210000201800402018040201008040201080449
:10022000020101020408102040800102040810208D
:100230004080740511241FBECFEFD1E2DEBFCDBFD9
:1002400000E00CBF12E0A0E0B2E0ECE8F0E100E07A
:100250000BBF02C007900D92A030B107D9F722E082
:10026000A0E0B2E001C01D92AE3AB207E1F711E0A2
:10027000CAE1D1E000E006C021970109802FFE010C
:100280000E943C08C931D10780E00807A9F70E9405
:1002900020060C9444080C94000090E0FC01E4510A
:1002A000FE4F24918A559E4FFC018491882399F03A
:1002B00090E0880F991FFC01E457FE4FA591B4917F
:1002C000FC01EE58FE4F859194918FB7F894EC9114
:1002D000E22BEC938FBF0895282F30E0F901E45D05
:1002E000FE4F9491F901E451FE4F44912A553E4F3F
:1002F000F9012491222309F435C0992311F1915079
:100300009231F8F4E92FF0E08827E657FE4F8F4F3F
:100310000C943C08BB01BF019C01B301B701A101D2
:10032000C201C801CC01D201D601DA01E001E40129
:10033000A101E801EE01F201809180008F778093A6
:100340008000E22FF0E0EE0FFF1FEE58FE4FA59168
:10035000B4918FB7F894EC91611148C040954E2349
:100360004C938FBF0895809180008F7DE8CF80915E
:100370008000877FE4CF84B58F7784BDE2CF84B5DA
:100380008F7DFBCF8091B0008F778093B000D9CF65
:100390008091B0008F7DF9CF809190008F7780930E
:1003A0009000CFCF809190008F7DF9CF8091900009
:1003B000877FF5CF8091A0008F778093A000C1CF79
:1003C0008091A0008F7DF9CF8091A000877FF5CF2D
:1003D000809120018F7780932001B3CF80912001FD
:1003E0008F7DF9CF80912001877FF5CF4E2BB8CF3D
:1003F000CF93DF9360E08CE00E946C0160E088E0C6
:100400000E946C01C7E0D0E060E084E00E946C01D3
:1004100080919E0290E00C2E02C0959587950A94DB
:10042000E2F761E080FF60E088E00E946C0161E03B
:1004300084E00E946C01219738F761E08CE0DF9145
:10044000CF910C946C018CE00E944D0187E00E94DA
:100450004D0188E00E944D0184E00E944D01109200
:100460009E020E94F80160E087E00C946C013FB7A7
:10047000F8948091090290910A02A0910B02B09128
:100480000C0226B5A89B05C02F3F19F00196A11DAF
:10049000B11D3FBFBA2FA92F982F8827BC01CD01CE
:1004A000620F711D811D911D42E0660F771F881F2D
:1004B000991F4A95D1F708958F929F92AF92BF925C
:1004C000CF92DF92EF92FF926B017C010E94370284
:1004D0004B015C01C114D104E104F104B9F00E94A4
:1004E0003702681979098A099B09683E73408105BA
:1004F000910580F321E0C21AD108E108F10888EEE5
:10050000880E83E0981EA11CB11CE4CFFF90EF90F1
:10051000DF90CF90BF90AF909F908F9008958F9273
:100520009F92AF92BF92FF920F931F93CF93DF934F
:10053000FC01653B710511F464EB70E0F0808FE223
:100540008F1508F44AC0828108E512E0081B1109E2
:1005500087FD1395000F111F000F111F8181C8E83F
:10056000D0E0C81BD10987FDD395CC0FDD1FCC0F80
:10057000DD1F4E010D2E000CAA08BB089801012EAC
:10058000000C440B550B281939094A095B09DB019A
:100590000E94F70724EB30E040E050E00E94CD07D6
:1005A000820E931EA41EB51E8C169D062CF0E8012B
:1005B000801691060CF4E4012297CC0FDD1F2FB7B3
:1005C000F8948F2D90E0FC01EE0FFF1FE80FF91F4C
:1005D000E35FFD4FD283C1832FBFDF91CF911F9186
:1005E0000F91FF90BF90AF909F908F9008958130B2
:1005F000910581F41092800082E080938100109236
:10060000850010928400B19A80916F00826080937F
:100610006F0008958230910569F41092900082E095
:1006200080939100109295001092940088BB809363
:10063000710008958330910569F41092A00082E062
:100640008093A1001092A5001092A40089BB809312
:1006500072000895892B61F41092200182E080934A
:10066000210110922501109224018ABB809373000E
:100670000895AF92BF92CF92DF92EF92FF920F93C5
:100680001F93CF93DF936B017A01EC01C050DE4FD3
:1006900028813CE0389F8001399F100D1124A090E3
:1006A0009D02B12C27FF1FC0FB011182108288819F
:1006B0008F5F888388819801280F311D87FD3A95C7
:1006C000F6012A153B051CF488818C30C4F1808129
:1006D0009181049680349C4908F473C0F6018081AE
:1006E0009181049670C088819801280F311D87FD83
:1006F0003A952A153B05DCF68881A801480F511D63
:1007000087FD5A95FA01EE0FFF1FE40FF51FE35F17
:10071000FD4F808186FFCBCF8881F801E80FF11D66
:1007200087FDFA95CF01EE0FFF1FE80FF91FE35F7A
:10073000FD4F808160E08F730E946C01B8CF808193
:1007400091812881A801420F511D27FD5A959A01D8
:10075000FA01EE0FFF1FE20FF31FE35FFD4F218150
:100760003281820F931FF7019183808388819801E2
:10077000280F311D87FD3A95F901EE0FFF1FE20F9B
:10078000F31FE35FFD4F808186FF22C08881080F41
:10079000111D87FD1A95F801EE0FFF1FE00FF11FE5
:1007A000E35FFD4F808161E08F73DF91CF911F91F7
:1007B0000F91FF90EF90DF90CF90BF90AF900C948F
:1007C0006C0180E49CE9F701918380838FEF88833B
:1007D000DF91CF911F910F91FF90EF90DF90CF901D
:1007E000BF90AF900895FC018081823079F018F4B9
:1007F000813031F00895833079F0843099F0089594
:1008000070E07093890060938800089570E07093A1
:100810009D0060939C00089570E07093A900609320
:10082000A800089570E0709399006093980008956F
:10083000FC018081823069F028F423E092E081306D
:1008400051F00895833011F126E090E0843019F0E2
:10085000089524E091E06230E1F0643079F1613094
:1008600009F03FC041E050E0BA0101C0660F9A951F
:10087000EAF780919E02862B01C0440F2A95EAF781
:100880004095482340939E020C94F80127E095E0A0
:10089000E2CF41E050E0BA0102C0660F771F9A959F
:1008A000E2F7CB01809590919E02892301C0440F0D
:1008B0002A95EAF7842B80939E02E6CF41E050E030
:1008C000FA0102C0EE0FFF1F9A95E2F7CF0101C0B7
:1008D000440F2A95EAF7842B809590919E028923F4
:1008E000EACF08951F920F920FB60F9211242F9303
:1008F0003F938F939F93AF93BF9380910502909105
:100900000602A0910702B09108023091040223E090
:10091000230F2D3758F50196A11DB11D2093040218
:100920008093050290930602A0930702B0930802F9
:100930008091090290910A02A0910B02B0910C02E1
:100940000196A11DB11D8093090290930A02A09304
:100950000B02B0930C02BF91AF919F918F913F9189
:100960002F910F900FBE0F901F90189526E8230F20
:100970000296A11DB11DD2CF1F920F920FB60F92FA
:1009800011240BB60F922F933F934F935F936F9366
:100990007F938F939F93AF93BF93EF93FF9348E21F
:1009A00051E064E271E090E080E00E943903FF9141
:1009B000EF91BF91AF919F918F917F916F915F91D7
:1009C0004F913F912F910F900BBE0F900FBE0F9044
:1009D0001F9018951F920F920FB60F9211240BB60D
:1009E0000F922F933F934F935F936F937F938F93C8
:1009F0009F93AF93BF93EF93FF9348EA50E064EA6D
:100A000070E083E090E00E943903FF91EF91BF9185
:100A1000AF919F918F917F916F915F914F913F9196
:100A20002F910F900BBE0F900FBE0F901F90189537
:100A30001F920F920FB60F9211240BB60F922F93A5
:100A40003F934F935F936F937F938F939F93AF9356
:100A5000BF93EF93FF9348E950E064E970E082E0D0
:100A600090E00E943903FF91EF91BF91AF919F9168
:100A70008F917F916F915F914F913F912F910F9047
:100A80000BBE0F900FBE0F901F9018951F920F92E4
:100A90000FB60F9211240BB60F922F933F934F93E3
:100AA0005F936F937F938F939F93AF93BF93EF93D6
:100AB000FF9348E850E064E870E081E090E00E9435
:100AC0003903FF91EF91BF91AF919F918F917F91EA
:100AD0006F915F914F913F912F910F900BBE0F90AF
:100AE0000FBE0F901F901895CF93DF9310929F0227
:100AF00081E08093AC02C2E0C093AD020E94230269
:100B000080919E02837F80939E020E94F8018091D3
:100B10008000816880938000DAE0D0938100109299
:100B20008900109288008BE00E944D01C093AA02B8
:100B3000C093AB020E94230280919E028D7E80931F
:100B40009E020E94F801809190008960809390003D
:100B5000D093910010929D0010929C0083E00E941F
:100B60004D0183E08093A802C093A9020E94230252
:100B700080919E028F7580939E020E94F801809161
:100B8000A00081688093A000D093A1001092A900DA
:100B90001092A80086E00E944D0184E08093A60296
:100BA000C093A7020E94230280919E028E7B8093B5
:100BB0009E020E94F80180919000816880939000CD
:100BC000D0939100109299001092980085E00E94B5
:100BD0004D0180919D02803358F591E0980F9093DC
:100BE0009D028093A30290E0FC01EE0FFF1FE80F2F
:100BF000F91FE35FFD4F88EB9BE092838183809137
:100C00009D028033C8F491E0980F90939D028093E9
:100C1000A00290E0FC01EE0FFF1FE80FF91FE35F59
:100C2000FD4F88EB9BE092838183DF91CF91089504
:100C30008FEF8093A302E3CF8FEF8093A002F5CFD5
:100C4000789484B5826084BD84B5816084BD85B5A7
:100C5000826085BD85B5816085BD80916E008160B3
:100C600080936E0010928100809181008260809359
:100C7000810080918100816080938100809180005B
:100C80008160809380008091B10084608093B10086
:100C90008091B00081608093B0008091910082606B
:100CA0008093910080919100816080939100809168
:100CB00090008160809390008091A1008260809379
:100CC000A1008091A10081608093A1008091A0008B
:100CD00081608093A0008091210182608093210136
:100CE00080912101816080932101809120018160A8
:100CF0008093200180917A00846080937A008091B3
:100D00007A00826080937A0080917A00816080937B
:100D10007A0080917A00806880937A001092C100F6
:100D20008091A302803308F042C08AE00E944D0106
:100D30008091A302282F30E0F901EE0FFF1FE20F90
:100D4000F31FE35FFD4F9081907C9A609083109237
:100D5000A4021092A5022CE0622F0E94300890E0BD
:100D6000829FB001112430E020E0AB01420F531FFD
:100D7000FA01EE0FFF1FE40FF51FE35FFD4F408107
:100D800046FD07C02F5F3F4F2C30310571F70E94A1
:100D9000F702E091A3028E2F90E0FC01EE0FFF1FFF
:100DA000E80FF91FE35FFD4F8081806480838091AD
:100DB000A002803308F042C089E00E944D0180917A
:100DC000A002282F30E0F901EE0FFF1FE20FF31F02
:100DD000E35FFD4F9081907C996090831092A10217
:100DE0001092A2022CE0622F0E94300890E0829FB5
:100DF000B001112430E020E0AB01420F531FFA0193
:100E0000EE0FFF1FE40FF51FE35FFD4F408146FD2E
:100E100007C02F5F3F4F2C30310571F70E94F7025A
:100E2000E091A0028E2F90E0FC01EE0FFF1FE80F73
:100E3000F91FE35FFD4F80818064808300E010E054
:100E400070E060E083EA92E00E948F0270E060E070
:100E500080EA92E00E948F02D0E0C0E0BE0183EA07
:100E600092E00E948F02BE0180EA92E00E948F020F
:100E700064E170E080E090E00E945C022196C53B56
:100E8000D10561F760ED8AEA92E00E94F30360ED1C
:100E900088EA92E00E94F30360ED8CEA92E00E94FF
:100EA000F30360ED86EA92E00E94F30362E08AEACF
:100EB00092E00E94180462E088EA92E00E9418041E
:100EC00062E08CEA92E00E94180462E086EA92E016
:100ED0000E94180460E177E280E090E00E945C02EA
:100EE00064E08AEA92E00E94180464E088EA92E0F2
:100EF0000E94180464E08CEA92E00E94180464E006
:100F000086EA92E00E94180460ED8CEA92E00E946A
:100F1000F30360ED86EA92E00E94F30360ED8AEA53
:100F200092E00E94F30360ED88EA92E00E94F303EE
:100F300061E08CEA92E00E94180461E086EA92E0A7
:100F40000E94180462E08AEA92E00E94180462E0BB
:100F500088EA92E00E94180460E177E280E090E085
:100F60000E945C0264E08AEA92E00E94180464E055
:100F700088EA92E00E94180464E08CEA92E00E9401
:100F8000180464E086EA92E00E9418040115110535
:100F900009F456CF0E94000053CF052E97FB1EF494
:100FA00000940E94E40757FD07D00E94FF0707FC4A
:100FB00003D04EF40C94E40750954095309521955C
:100FC0003F4F4F4F5F4F0895909580957095619575
:100FD0007F4F8F4F9F4F08950E942108A59F900D2E
:100FE000B49F900DA49F800D911D11240895B7FF0B
:100FF0000C94EC070E94EC07821B930B0895A1E26E
:101000001A2EAA1BBB1BFD010DC0AA1FBB1FEE1F82
:10101000FF1FA217B307E407F50720F0A21BB30BCD
:10102000E40BF50B661F771F881F991F1A9469F749
:1010300060957095809590959B01AC01BD01CF01A5
:101040000895A29FB001B39FC001A39F700D811DA1
:101050001124911DB29F700D811D1124911D0895C1
:10106000991B79E004C0991F961708F0961B881FFA
:101070007A95C9F780950895EE0FFF1F881F8BBFE3
:0C1080000790F691E02D1994F894FFCF32
:00000001FF
