:100000000C941A010C944B010C944B010C944B0171
:100010000C944B010C944B010C944B010C944B0130
:100020000C944B010C944B010C944B010C944B0120
:100030000C944B010C944B010C944B010C944B0110
:100040000C944B010C94C5030C944B010C944B0184
:100050000C944B010C944B010C944B010C94F10249
:100060000C944B010C944B010C944B010C944B01E0
:100070000C944B010C944B010C944B010C944B01D0
:100080000C9497030C944B010C944B010C944B0172
:100090000C944B010C944B010C944B010C944B01B0
:1000A0000C944B010C944B010C9469030C944B0180
:1000B0000C944B010C944B010C944B010C943B039E
:1000C0000C944B010C944B010C944B010C944B0180
:1000D0000C944B010C944B010C944B010C944B0170
:1000E0000C944B010C94BF010C94E4010C94B301EB
:1000F0000C94D6010C94C8010C94B7010C94A10186
:100100000C94F3030C94F2010C94E0010C94DA01CA
:100110000C94C2010C94EE010C94E8010C94D201F1
:100120000C949C010C94BB010C94CC0100000A0BB4
:1001300002090C0D0E080703040100000000000076
:1001400000000000000000000000000000000000AF
:10015000000000000000000012111000000000006C
:10016000000000000000000000000000000000008F
:10017000000000002200250028002B002E00310086
:10018000340002010000050108010B0100002100FC
:10019000240027002A002D00300033000101000058
:1001A000040107010A0105050505070508080808F7
:1001B000020202020A0A08080404040401010101FF
:1001C00001010101030303030303030304070707FA
:1001D0000C0C0C0C0C0C0C0C02020202060606069F
:1001E000060606060B0B0B0B0B0B0B0B010210206C
:1001F000200808102040102040800201020108045D
:1002000002010102040810204080804020100804F0
:100210000201800402018040201008040201080449
:10022000020101020408102040800102040810208D
:100230004080F30311241FBECFEFD1E2DEBFCDBF5C
:1002400000E00CBF12E0A0E0B2E0ECE0FAE000E079
:100250000BBF02C007900D92A030B107D9F722E082
:10026000A0E0B2E001C01D92AB3AB207E1F711E0A5
:10027000CAE1D1E000E006C021970109802FFE010C
:100280000E94FC04C931D10780E00807A9F70E9449
:1002900085040C9404050C94000090E0FC01E451EA
:1002A000FE4F24918A559E4FFC018491882399F03A
:1002B00090E0880F991FFC01E457FE4FA591B4917F
:1002C000FC01EE58FE4F859194918FB7F894EC9114
:1002D000E22BEC938FBF0895282F30E0F901E45D05
:1002E000FE4F9491F901E451FE4F44912A553E4F3F
:1002F000F9012491222309F435C0992311F1915079
:100300009231F8F4E92FF0E08827E657FE4F8F4F3F
:100310000C94FC04BB01BF019C01B301B701A10116
:10032000C201C801CC01D201D601DA01E001E40129
:10033000A101E801EE01F201809180008F778093A6
:100340008000E22FF0E0EE0FFF1FEE58FE4FA59168
:10035000B4918FB7F894EC91611148C040954E2349
:100360004C938FBF0895809180008F7DE8CF80915E
:100370008000877FE4CF84B58F7784BDE2CF84B5DA
:100380008F7DFBCF8091B0008F778093B000D9CF65
:100390008091B0008F7DF9CF809190008F7780930E
:1003A0009000CFCF809190008F7DF9CF8091900009
:1003B000877FF5CF8091A0008F778093A000C1CF79
:1003C0008091A0008F7DF9CF8091A000877FF5CF2D
:1003D000809120018F7780932001B3CF80912001FD
:1003E0008F7DF9CF80912001877FF5CF4E2BB8CF3D
:1003F000CF93DF9360E08CE00E946C0160E088E0C6
:100400000E946C01C7E0D0E060E084E00E946C01D3
:1004100080910D0290E00C2E02C0959587950A946C
:10042000E2F761E080FF60E088E00E946C0161E03B
:1004300084E00E946C01219738F761E08CE0DF9145
:10044000CF910C946C018CE00E944D0187E00E94DA
:100450004D0188E00E944D0184E00E944D01109200
:100460000D020E94F80160E087E00C946C01AF92ED
:10047000BF92CF92DF92EF92FF920F931F93CF9391
:10048000DF936B017A01EC01C050DE4F28813CE024
:10049000389F8001399F100D1124A0909F02B12C2C
:1004A00027FF1FC0FB011182108288818F5F888324
:1004B00088819801280F311D87FD3A95F6012A158C
:1004C0003B051CF488818C30C4F1808191810496B5
:1004D00080349C4908F473C0F601808191810496B0
:1004E00070C088819801280F311D87FD3A952A1523
:1004F0003B05DCF68881A801480F511D87FD5A9500
:10050000FA01EE0FFF1FE40FF51FE15FFD4F808141
:1005100086FFCBCF8881F801E80FF11D87FDFA95A2
:10052000CF01EE0FFF1FE80FF91FE15FFD4F808144
:1005300060E08F730E946C01B8CF80819181288127
:10054000A801420F511D27FD5A959A01FA01EE0F9D
:10055000FF1FE20FF31FE15FFD4F21813281820F08
:10056000931FF7019183808388819801280F311DA3
:1005700087FD3A95F901EE0FFF1FE20FF31FE15FD0
:10058000FD4F808186FF22C08881080F111D87FDE5
:100590001A95F801EE0FFF1FE00FF11FE15FFD4F0D
:1005A000808161E08F73DF91CF911F910F91FF9058
:1005B000EF90DF90CF90BF90AF900C946C0180E4EF
:1005C0009CE9F701918380838FEF8883DF91CF913E
:1005D0001F910F91FF90EF90DF90CF90BF90AF9061
:1005E00008951F920F920FB60F9211242F933F93ED
:1005F0008F939F93AF93BF938091090290910A02CA
:10060000A0910B02B0910C023091080223E0230F5D
:100610002D3758F50196A11DB11D20930802809336
:10062000090290930A02A0930B02B0930C028091EE
:10063000040290910502A0910602B0910702019672
:10064000A11DB11D8093040290930502A0930602A0
:10065000B0930702BF91AF919F918F913F912F91DE
:100660000F900FBE0F901F90189526E8230F02964B
:10067000A11DB11DD2CF1F920F920FB60F92112460
:100680000BB60F922F933F934F935F936F937F938C
:100690008F939F93AF93BF93EF93FF9348E251E003
:1006A00064E271E090E080E00E943702FF91EF91F8
:1006B000BF91AF919F918F917F916F915F914F917A
:1006C0003F912F910F900BBE0F900FBE0F901F9078
:1006D00018951F920F920FB60F9211240BB60F921E
:1006E0002F933F934F935F936F937F938F939F933A
:1006F000AF93BF93EF93FF9348EA50E064EA70E052
:1007000083E090E00E943702FF91EF91BF91AF919B
:100710009F918F917F916F915F914F913F912F9119
:100720000F900BBE0F900FBE0F901F9018951F9249
:100730000F920FB60F9211240BB60F922F933F9387
:100740004F935F936F937F938F939F93AF93BF93D9
:10075000EF93FF9348E950E064E970E082E090E0B5
:100760000E943702FF91EF91BF91AF919F918F91BE
:100770007F916F915F914F913F912F910F900BBEA1
:100780000F900FBE0F901F9018951F920F920FB6EB
:100790000F9211240BB60F922F933F934F935F93B9
:1007A0006F937F938F939F93AF93BF93EF93FF9339
:1007B00048E850E064E870E081E090E00E94370291
:1007C000FF91EF91BF91AF919F918F917F916F9129
:1007D0005F914F913F912F910F900BBE0F900FBEE5
:1007E0000F901F901895CF93DF9310920E02809177
:1007F0009F02803308F085C091E0980F90939F028C
:100800008093A80290E0FC01EE0FFF1FE80FF91F94
:10081000E15FFD4F88EB9BE09283818381E08093D1
:10082000A602C2E0C093A7020E94230280910D029B
:10083000837F80930D020E94F8018091800081687F
:1008400080938000DAE0D0938100109289001092AA
:1008500088008BE00E944D01C093A402C093A502C2
:100860000E94230280910D028D7E80930D020E94D2
:10087000F80180919000896080939000D09391005E
:1008800010929D0010929C0083E00E944D0183E035
:100890008093A202C093A3020E94230280910D02C2
:1008A0008F7580930D020E94F8018091A0008168ED
:1008B0008093A000D093A1001092A9001092A800EC
:1008C00086E00E944D0184E08093A002C093A102C3
:1008D0000E94230280910D028E7B80930D020E9464
:1008E000F80180919000816880939000D0939100EE
:1008F000109299001092980085E0DF91CF910C94AE
:100900004D018FEF8093A80289CF789484B58260DF
:1009100084BD84B5816084BD85B5826085BD85B5A3
:10092000816085BD80916E00816080936E00109221
:10093000810080918100826080938100809181009C
:10094000816080938100809180008160809380002D
:100950008091B10084608093B1008091B00081608B
:100960008093B0008091910082608093910080918B
:1009700091008160809391008091900081608093CC
:1009800090008091A10082608093A1008091A100DD
:1009900081608093A1008091A00081608093A0007D
:1009A00080912101826080932101809121018160E9
:1009B00080932101809120018160809320018091AA
:1009C0007A00846080937A0080917A0082608093BC
:1009D0007A0080917A00816080937A0080917A0019
:1009E000806880937A001092C100C0E0D0E0209728
:1009F000F1F30E940000FBCFEE0FFF1F881F8BBF9B
:0C0A00000790F691E02D1994F894FFCFB8
:00000001FF
