:100000000C9438010C9469010C9469010C946901F9
:100010000C9469010C9469010C9469010C946901B8
:100020000C9469010C9429060C9429060C94290659
:100030000C9469010C9469010C9469010C94690198
:100040000C9469010C94FB050C9469010C946901F2
:100050000C9469010C9469010C9469010C942705B6
:100060000C9469010C9469010C9469010C94690168
:100070000C9469010C9469010C9469010C94690158
:100080000C94CD050C9469010C9469010C946901E0
:100090000C9469010C9469010C9469010C94690138
:1000A0000C9469010C9469010C949F050C946901EE
:1000B0000C9469010C9469010C9469010C9471050C
:1000C0000C9469010C9469010C9469010C94690108
:1000D0000C9469010C9469010C9469010C946901F8
:1000E0000C9469010C942F020C9447020C941E028C
:1000F0000C9455020C94F4020C9436040C945102A6
:100100000C942B020C9435020C944B020C941D049D
:100110000C9443020C94530A0C9416020C94A804F9
:100120000C94C9040C9439020C94FF010C9435040E
:100130000C94A5060C943D020C941A020C94220215
:100140000C9492040C9425020C94040200002100EB
:10015000240027002A002D00300033000101000098
:10016000040107010A0100000A0B02090C0D0E0828
:100170000703040100000000000000000000000070
:10018000000000000000000000000000000000006F
:10019000000012111000000000000000000000002C
:1001A000000000000000000000000000000020002F
:1001B0002300260029002C002F003200000100003F
:1001C00003010601090100002200250028002B0080
:1001D0002E003100340002010000050108010B016E
:1001E00005050505070508080808020202020A0AB3
:1001F00008080404040401010101010101010303D1
:10020000030303030303040707070C0C0C0C0C0C7B
:100210000C0C0202020206060606060606060B0B78
:100220000B0B0B0B0B0B01021020200808102040B9
:1002300010204080020102010804020101020408AA
:100240001020408080402010080402018004020138
:100250008040201008040201080402010102040881
:10026000102040800102040810204080A506530A97
:1002700011241FBECFEFD1E2DEBFCDBF00E00CBF27
:1002800012E0A0E0B2E0E0EEF5E100E00BBF02C05A
:1002900007900D92A231B107D9F723E0A2E1B2E0B5
:1002A00001C01D92A432B207E1F711E0C7E3D1E02B
:1002B00000E006C021970109802FFE010E94D60AA6
:1002C000C633D10780E00807A9F70E94C1070C9444
:1002D000DE0A0C9400008F929F92AF92BF92FF9221
:1002E0000F931F93CF93DF93FC01F0808FE28F1564
:1002F00008F44BC0828108E512E0081B110987FD54
:100300001395000F111F000F111F8181C8E8D0E065
:10031000C81BD10987FDD395CC0FDD1FCC0FDD1F86
:100320004E010D2E000CAA08BB089801012E000CEE
:10033000440B550B281939094A095B09A2E8B0E0BA
:100340000E948E0A24EB30E040E050E00E946F0AE9
:10035000820E931EA41EB51E8C169D062CF0E8017D
:10036000801691060CF4E4012297CC0FDD1F2FB705
:10037000F8948F2D90E0FC01EE0FFF1FE80FF91F9E
:10038000EC59FD4FD283C1832FBFDF91CF911F91D5
:100390000F91FF90BF90AF909F908F900895282F5E
:1003A00030E0F901EA59FE4F9491F901EA5DFD4F01
:1003B000449120523E4FF9012491222309F435C083
:1003C000992311F191509231F8F4E92FF0E0882748
:1003D000E351FE4F8F4F0C94D60A1E022202FF01FA
:1003E00016021A02040225022B022F0235023902DC
:1003F0003D024302470204024B0251025502809122
:1004000080008F7780938000E22FF0E0EE0FFF1FD7
:10041000EA53FE4FA591B4918FB7F894EC91611116
:1004200048C040954E234C938FBF08958091800023
:100430008F7DE8CF80918000877FE4CF84B58F7770
:1004400084BDE2CF84B58F7DFBCF8091B0008F77E4
:100450008093B000D9CF8091B0008F7DF9CF80918B
:1004600090008F7780939000CFCF809190008F7D08
:10047000F9CF80919000877FF5CF8091A0008F7792
:100480008093A000C1CF8091A0008F7DF9CF809193
:10049000A000877FF5CF809120018F778093200186
:1004A000B3CF809120018F7DF9CF80912001877F8C
:1004B000F5CF4E2BB8CFCF93DF9360E08CE00E9456
:1004C000CF0160E088E00E94CF01C7E0D0E060E0AB
:1004D00084E00E94CF018091F50290E00C2E02C0D2
:1004E000959587950A94E2F761E080FF60E088E0E7
:1004F0000E94CF0161E084E00E94CF01219738F78C
:1005000061E08CE0DF91CF910C94CF01CF93DF932A
:1005100090E0FC01EA5DFD4F249180529E4FFC016A
:1005200084918823D1F090E0880F991FFC01E45B4F
:10053000FE4FA591B491FC01EA53FE4FC591D491B1
:1005400061110EC09FB7F8948C91E22FE0958E2335
:100550008C932881E223E8839FBFDF91CF91089598
:100560008FB7F894EC91E22BEC938FBFF6CF61E05C
:100570008CE00E94860261E087E00E94860261E0D2
:1005800088E00E94860261E084E00E948602109268
:10059000F5020E945B0260E087E00C94CF013FB758
:1005A000F8948091600290916102A0916202B091F2
:1005B000630226B5A89B05C02F3F19F00196A11D27
:1005C000B11D3FBFBA2FA92F982F8827BC01CD019D
:1005D000620F711D811D911D42E0660F771F881FFC
:1005E000991F4A95D1F70895AF92BF92CF92DF92AB
:1005F000EF92FF920F931F93CF93DF936C017B01D8
:100600008B01040F151FEB015E01AE18BF08C01768
:10061000D10759F06991D601ED91FC910190F081DB
:10062000E02DC6011995892B79F7C501DF91CF918E
:100630001F910F91FF90EF90DF90CF90BF90AF9000
:1006400008958130910581F41092800082E08093BA
:1006500081001092850010928400B19A80916F0001
:10066000826080936F0008958230910569F4109242
:10067000900082E080939100109295001092940077
:1006800088BB8093710008958330910569F41092BE
:10069000A00082E08093A1001092A5001092A40017
:1006A00089BB809372000895892B61F41092200118
:1006B00082E08093210110922501109224018ABBCF
:1006C000809373000895AF92BF92CF92DF92EF9222
:1006D000FF920F931F93CF93DF936B017A01EC018D
:1006E000CE5ADD4F28813CE0389F8001399F100DA4
:1006F0001124A090F402B12C27FF1FC0FB0111822E
:10070000108288818F5F888388819801280F311D2E
:1007100087FD3A95F6012A153B051CF488818C303B
:10072000C4F180819181049680349C4908F473C09F
:10073000F60180819181049670C088819801280F0C
:10074000311D87FD3A952A153B05DCF68881A80105
:10075000480F511D87FD5A95FA01EE0FFF1FE40F58
:10076000F51FEC59FD4F808186FFCBCF8881F801C2
:10077000E80FF11D87FDFA95CF01EE0FFF1FE80F7F
:10078000F91FEC59FD4F808160E08F730E94CF010B
:10079000B8CF808191812881A801420F511D27FD8A
:1007A0005A959A01FA01EE0FFF1FE20FF31FEC5961
:1007B000FD4F21813281820F931FF7019183808346
:1007C00088819801280F311D87FD3A95F901EE0FB8
:1007D000FF1FE20FF31FEC59FD4F808186FF22C0FF
:1007E0008881080F111D87FD1A95F801EE0FFF1F74
:1007F000E00FF11FEC59FD4F808161E08F73DF91B5
:10080000CF911F910F91FF90EF90DF90CF90BF900D
:10081000AF900C94CF0180E49CE9F7019183808331
:100820008FEF8883DF91CF911F910F91FF90EF9011
:10083000DF90CF90BF90AF900895209158023091F3
:1008400059022817390771F4909156028091570286
:10085000981741F0E0915602F0E0EE5EFD4F808186
:1008600090E008958FEF9FEF08950895EF92FF9223
:100870000F931F93CF93DF93DC015C96ED90FC9078
:100880005D97E114F10479F481E090E013969C9374
:100890008E93129790E080E0DF91CF911F910F919E
:1008A000FF90EF9008955196ED91FC9152975096DC
:1008B0008C915097982F90950FB75E962C915E97DC
:1008C000122F127021FD6095F8942081112319F1E7
:1008D000282B2083E7012197F1F728E0462F50E0ED
:1008E000308160FF1AC0382B3083E7012197F1F780
:1008F000BA0175956795215089F7112381F08081A0
:10090000892380830FBF5C968D919C910197F1F7AD
:1009100081E090E0C1CF2923DCCF3923E5CF90815E
:10092000892BEFCF209158023091590228173907AF
:1009300061F4809157022091560290E0805C9F4FB5
:10094000821B91098F739927089590E080E00895A4
:10095000209158023091590228173907B9F4909123
:10096000560280915702981789F0E0915602F0E004
:10097000EE5EFD4F80812091560230E02F5F3F4FA9
:100980002F7333272093560290E008958FEF9FEF47
:10099000089590E080E00895FC018081823079F034
:1009A00018F4813031F00895833079F0843099F073
:1009B000089570E07093890060938800089570E056
:1009C00070939D0060939C00089570E07093A9005F
:1009D0006093A800089570E0709399006093980068
:1009E0000895FC018081823049F118F4813031F0A2
:1009F00008958330E9F08430F1F0089553E082E007
:100A000021E030E0F90102C0EE0FFF1F8A95E2F706
:100A1000CF014091F50201C0220F5A95EAF76230EA
:100A200081F0842B209528232093F5020C945B02FF
:100A300057E085E0E5CF56E080E0E2CF54E081E08A
:100A4000DFCF80958423822B8093F502EFCF1F9216
:100A50000F920FB60F9211242F933F938F939F9372
:100A6000AF93BF9380915C0290915D02A0915E0272
:100A7000B0915F0230915B0223E0230F2D3758F5D0
:100A80000196A11DB11D20935B0280935C0290939F
:100A90005D02A0935E02B0935F028091600290912C
:100AA0006102A0916202B09163020196A11DB11D85
:100AB0008093600290936102A0936202B0936302FC
:100AC000BF91AF919F918F913F912F910F900FBE4A
:100AD0000F901F90189526E8230F0296A11DB11DB7
:100AE000D2CF1F920F920FB60F9211240BB60F9216
:100AF0002F933F934F935F936F937F938F939F9326
:100B0000AF93BF93EF93FF9348E251E064E271E04B
:100B100090E080E00E946303FF91EF91BF91AF915D
:100B20009F918F917F916F915F914F913F912F9105
:100B30000F900BBE0F900FBE0F901F9018951F9235
:100B40000F920FB60F9211240BB60F922F933F9373
:100B50004F935F936F937F938F939F93AF93BF93C5
:100B6000EF93FF9348EA50E064EA70E083E090E09E
:100B70000E946303FF91EF91BF91AF919F918F917D
:100B80007F916F915F914F913F912F910F900BBE8D
:100B90000F900FBE0F901F9018951F920F920FB6D7
:100BA0000F9211240BB60F922F933F934F935F93A5
:100BB0006F937F938F939F93AF93BF93EF93FF9325
:100BC00048E950E064E970E082E090E00E9463034D
:100BD000FF91EF91BF91AF919F918F917F916F9115
:100BE0005F914F913F912F910F900BBE0F900FBED1
:100BF0000F901F9018951F920F920FB60F9211240D
:100C00000BB60F922F933F934F935F936F937F9306
:100C10008F939F93AF93BF93EF93FF9348E850E078
:100C200064E870E081E090E00E946303FF91EF913F
:100C3000BF91AF919F918F917F916F915F914F91F4
:100C40003F912F910F900BBE0F900FBE0F901F90F2
:100C500018951F920F920FB60F9211240BB60F9298
:100C60002F933F934F935F936F937F938F939F93B4
:100C7000AF93BF93EF93FF93E0915802F091590225
:100C8000309749F0A685B7858585968D91FF16C06A
:100C90009C918923B1F4FF91EF91BF91AF919F9106
:100CA0008F917F916F915F914F913F912F910F9015
:100CB0000BBE0F900FBE0F901F9018959C9189232B
:100CC00051F7A389B4899C918589809589238C9358
:100CD000868997890197F1F7608D718DA685B78513
:100CE000558538E020E0CB010197F1F7822F90E0A5
:100CF00095958795282F4C91452309F02068315010
:100D000091F7868D81FD20958091570290E00196A4
:100D10008F73992730915602381799F0A091570296
:100D2000B0E0AE5EBD4F2C9380935702828D938DC1
:100D30000197F1F7A389B4898C919589892B8C93BC
:100D4000AACF868D8160868FF1CFCF93DF931092EB
:100D5000F602109208031092070388EE93E0A0E0D9
:100D6000B0E08093090390930A03A0930B03B09320
:100D70000C0384E092E090930603809305031092A5
:100D80001C0310921B0310921E0310921D0310925D
:100D9000200310921F0310922203109221036091EE
:100DA00023036E7F6D7F609323036695617081E0FE
:100DB00068278AE00E94CF0161E08AE00E948602F3
:100DC000E0E3F2E0E491E0931503EAEEF1E0E49170
:100DD000F0E0EE0FFF1FEA53FE4F85919491909340
:100DE00017038093160360E089E00E9486028091D9
:100DF000230381FD04C061E089E00E94CF0189E006
:100E000080931103EFE2F2E0E491E0931203E9EE44
:100E1000F1E0E491F0E0EE0FFF1FE455FE4F859105
:100E20009491909314038093130384E080930303BD
:100E3000C2E0C09304030E94B7028091F5028E7B4A
:100E40008093F5020E945B028091900081688093FC
:100E50009000DAE0D09391001092990010929800DF
:100E600061E085E00E94860283E080930103C093E5
:100E700002030E94B7028091F5028F758093F502FC
:100E80000E945B028091A00081688093A000D093B3
:100E9000A1001092A9001092A80061E086E00E94D3
:100EA0008602C093FF02C09300030E94B7028091A4
:100EB000F5028D7E8093F5020E945B028091900086
:100EC000896080939000D093910010929D001092C1
:100ED0009C0061E083E00E94860281E08093FD0235
:100EE000C093FE020E94B7028091F502837F809337
:100EF000F5020E945B0280918000816880938000EF
:100F0000D0938100109289001092880061E08BE0FC
:100F10000E9486028091F402803358F591E0980F88
:100F20009093F4028093FA0290E0FC01EE0FFF1F11
:100F3000E80FF91FEC59FD4F88EB9BE0928381830A
:100F40008091F4028033C8F491E0980F9093F402FA
:100F50008093F70290E0FC01EE0FFF1FE80FF91FEE
:100F6000EC59FD4F88EB9BE092838183DF91CF9119
:100F700008958FEF8093FA02E3CF8FEF8093F7020B
:100F8000F5CF789484B5826084BD84B5816084BDDA
:100F900085B5826085BD85B5816085BD80916E0017
:100FA000816080936E001092810080918100826048
:100FB0008093810080918100816080938100809185
:100FC00080008160809380008091B1008460809374
:100FD000B1008091B00081608093B0008091910059
:100FE0008260809391008091910081608093910054
:100FF000809190008160809390008091A100826038
:101000008093A1008091A10081608093A1008091D4
:10101000A00081608093A000809121018260809374
:101020002101809121018160809321018091200123
:1010300081608093200180917A00846080937A009F
:1010400080917A00826080937A0080917A0081603A
:1010500080937A0080917A00806880937A00109261
:10106000C1008091FA02803308F043C061E08AE059
:101070000E9486028091FA02282F30E0F901EE0FDB
:10108000FF1FE20FF31FEC59FD4F9081907C9A6097
:1010900090831092FB021092FC022CE0622F0E94BF
:1010A000CA0A90E0829FB001112430E020E0AB0139
:1010B000420F531FFA01EE0FFF1FE40FF51FEC590B
:1010C000FD4F408146FD07C02F5F3F4F2C3031055B
:1010D00071F70E942103E091FA028E2F90E0FC014B
:1010E000EE0FFF1FE80FF91FEC59FD4F8081806460
:1010F00080838091F702803308F043C061E089E08B
:101100000E9486028091F702282F30E0F901EE0F4D
:10111000FF1FE20FF31FEC59FD4F9081907C996007
:1011200090831092F8021092F9022CE0622F0E9434
:10113000CA0A90E0829FB001112430E020E0AB01A8
:10114000420F531FFA01EE0FFF1FE40FF51FEC597A
:10115000FD4F408146FD07C02F5F3F4F2C303105CA
:1011600071F70E942103E091F7028E2F90E0FC01BD
:10117000EE0FFF1FE80FF91FEC59FD4F80818064CF
:1011800080831092200310921F0310921E0310926E
:101190001D0310921C0310921B038DE991E09093A4
:1011A0002203809321038091110396EF980F9430CE
:1011B00048F02EEC280F243028F022EC280F28309D
:1011C00008F061C02DEB30E030931C0320931B032B
:1011D0002BE931E030931E0320931D032CE231E014
:1011E0003093200320931F03943050F02EEC280FEF
:1011F000243030F022EC280FF0E0E0E0283010F44A
:10120000E8E6F0E02081943028F032EC380F3830F6
:1012100008F485C031E0232B943048F09EEC980F01
:10122000943028F08E53F0E0E0E0883010F4E8E6E7
:10123000F0E020832091110336EF320F343008F4B0
:1012400070C08EEC820F843008F46BC082EC820F89
:10125000883008F469C090E080E09093190380938F
:101260001803343008F063C02650330B81E001C00E
:10127000880F2A95EAF780931A03809121039091B1
:1012800022030197F1F780911F0390912003892B8E
:1012900049F1E0915802F091590223E0E530F2075C
:1012A00009F1309739F0A389B4899C91858980959B
:1012B00089238C93809123038E7F80932303109244
:1012C00057021092560285E093E090935902809362
:1012D0005802E0911803F0911903808190911A034C
:1012E000892B8083C0E0D0E085E093E00E949204E7
:1012F0001816190634F485E093E00E94A804809340
:101300005A0280915A028C3409F4A8C02CF5863414
:1013100009F454C0209741F30E940000E5CF34E067
:101320007ACF8BE690E099CF8DE690E096CF88E07B
:10133000223309F4A0CF84E0233309F49CCF82E068
:10134000243309F498CF82EC820F883018F42E539E
:10135000330B8CCF81E08FCF823509F456C08335B3
:10136000C9F68AEF92E00E946B0187EF92E00E943B
:101370006B010E94CF024B015C018FE0C82ED12C83
:10138000E12CF12C0E94CF02681979098A099B0986
:10139000683E734081059105A8F381E0C81AD10821
:1013A000E108F10828EE820E23E0921EA11CB11C78
:1013B000C114D104E104F10429F7ACCF64E683E061
:1013C00093E00E94CC0464E681E093E00E94CC04A8
:1013D00064E68FEF92E00E94CC0464E68DEF92E029
:1013E0000E94CC0461E083E093E00E94F10462E09B
:1013F00081E093E00E94F10461E08FEF92E00E94AF
:10140000F10462E08DEF92E026C064E683E093E0B1
:101410000E94CC0464E68DEF92E00E94CC0466E961
:1014200081E093E00E94CC0466E98FEF92E00E9495
:10143000CC0461E083E093E00E94F10462E08DEF70
:1014400092E00E94F10461E081E093E00E94F104E7
:1014500062E08FEF92E00E94F1045CCF64E681E0ED
:1014600093E00E94CC0464E68FEF92E00E94CC04EB
:1014700066E983E093E00E94CC0466E98DEF92E098
:101480000E94CC0462E081E093E00E94F10461E0FC
:101490008FEF92E00E94F10462E083E093E00E940B
:1014A000F10461E0AFCF84E092E090930603809373
:1014B000050380915802909159028550934071F430
:1014C000E0911803F0911903908180911A0380959F
:1014D0008923808310925902109258020895052E94
:1014E00097FB1EF400940E94860A57FD07D00E94C5
:1014F000990A07FC03D04EF40C94860A5095409547
:10150000309521953F4F4F4F5F4F089590958095AF
:10151000709561957F4F8F4F9F4F08950E94BB0A32
:10152000A59F900DB49F900DA49F800D911D112437
:101530000895A1E21A2EAA1BBB1BFD010DC0AA1F14
:10154000BB1FEE1FFF1FA217B307E407F50720F02C
:10155000A21BB30BE40BF50B661F771F881F991FA7
:101560001A9469F760957095809590959B01AC01F0
:10157000BD01CF010895A29FB001B39FC001A39FF9
:10158000700D811D1124911DB29F700D811D1124BC
:10159000911D0895991B79E004C0991F961708F0D2
:1015A000961B881F7A95C9F780950895EE0FFF1F47
:1015B000881F8BBF0790F691E02D199411E0C7E3C7
:1015C000D1E000E006C0802FFE010E94D60A2196DD
:1015D000011DC833D10780E00807A9F7F894FFCFB1
:1015E000000000003604F402C90435049204A80483
:0215F0001D04D8
:00000001FF
