:100000000C9444010C9475010C9475010C947501C9
:100010000C9475010C9475010C9475010C94750188
:100020000C9475010C94A0050C94A0050C94A005EB
:100030000C9475010C9475010C9475010C94750168
:100040000C9475010C9475010C9475010C94750158
:100050000C9475010C9475010C9475010C94F604C4
:100060000C9475010C946A050C9440050C94750170
:100070000C9475010C9475010C9475010C94750128
:100080000C9475010C9475010C9475010C94750118
:100090000C9475010C9475010C9475010C94750108
:1000A0000C9475010C9475010C9475010C947501F8
:1000B0000C9475010C9475010C9475010C947501E8
:1000C0000C9475010C9475010C9475010C947501D8
:1000D0000C9475010C9475010C9475010C947501C8
:1000E0000C9475010C9446020C94DD010C94A4024E
:1000F0000C944D060C94E5010C94B5090C94EB019D
:100100000C94CD010C94F3010C94C2010C940504E1
:100110000C94DC020C9426040C94D3010C94C601BC
:100120000C94EF010C9496020C94A7010C942903F3
:100130000C9493030C94FD010C94CA010C94E101FE
:100140000C94EF030C94D7010C94F9010C94AC01BE
:100150000C947A030C9482020C9473020C94BE01EA
:100160000C94920300002100240027002A002D0097
:100170003000330001010000040107010A01000002
:100180000A0B02090C0D0E08070304010000000011
:10019000000000000000000000000000000000005F
:1001A000000000000000000000001211100000001C
:1001B000000000000000000000000000000000003F
:1001C00000000000000020002300260029002C0071
:1001D0002F003200000100000301060109010000A8
:1001E0002200250028002B002E00310034000201DF
:1001F0000000050108010B010505050507050808B4
:100200000808020202020A0A0808040404040101A0
:1002100001010101010103030303030303030407B5
:1002200007070C0C0C0C0C0C0C0C0202020206064C
:100230000606060606060B0B0B0B0B0B0B0B01023F
:1002400010202008081020401020408002010201E8
:1002500008040201010204081020408080402010A0
:1002600008040201800402018040201008040201F9
:100270000804020101020408102040800102040861
:10028000102040804D06B50911241FBECFEFD1E2EA
:10029000DEBFCDBF00E00CBF12E0A0E0B2E0EAE1BB
:1002A000F4E100E00BBF02C007900D92A432B10749
:1002B000D9F723E0A4E2B2E001C01D92A833B2074F
:1002C000E1F711E0C3E4D1E000E006C021970109A5
:1002D000802FFE010E94F309C234D10780E0080795
:1002E000A9F70E9472070C94FB090C940000282FB8
:1002F00030E0F901E258FE4F9491F901E25CFD4FC4
:10030000449128503E4FF9012491222309F435C02D
:10031000992311F191509231F8F4E92FF0E08827F8
:10032000EB56FE4F8F4F0C94F309C601CA01A7018B
:10033000BE01C201AC01CD01D301D701DD01E10154
:10034000E501EB01EF01AC01F301F901FD01809141
:1003500080008F7780938000E22FF0E0EE0FFF1F88
:10036000E252FE4FA591B4918FB7F894EC916111D0
:1003700048C040954E234C938FBF089580918000D4
:100380008F7DE8CF80918000877FE4CF84B58F7721
:1003900084BDE2CF84B58F7DFBCF8091B0008F7795
:1003A0008093B000D9CF8091B0008F7DF9CF80913C
:1003B00090008F7780939000CFCF809190008F7DB9
:1003C000F9CF80919000877FF5CF8091A0008F7743
:1003D0008093A000C1CF8091A0008F7DF9CF809144
:1003E000A000877FF5CF809120018F778093200137
:1003F000B3CF809120018F7DF9CF80912001877F3D
:10040000F5CF4E2BB8CFCF93DF9360E08CE00E9406
:10041000770160E088E00E947701C7E0D0E060E00B
:1004200084E00E94770180910F0390E00C2E02C0BF
:10043000959587950A94E2F761E080FF60E088E097
:100440000E94770161E084E00E947701219738F7EC
:1004500061E08CE0DF91CF910C94770161E08CE05A
:100460000E941C0661E087E00E941C0661E088E0B3
:100470000E941C0661E084E00E941C0610920F039B
:100480000E94030260E087E00C947701AF92BF9274
:10049000CF92DF92EF92FF920F931F93CF93DF9350
:1004A0006C017B018B01040F151FEB015E01AE187F
:1004B000BF08C017D10759F06991D601ED91FC91A1
:1004C0000190F081E02DC6011995892B79F7C501BE
:1004D000DF91CF911F910F91FF90EF90DF90CF9020
:1004E000BF90AF900895FC01538D448D252F30E0CF
:1004F000842F90E0821B930B541710F0CF96089531
:1005000001970895FC01918D828D981761F0A28D5D
:10051000AE0FBF2FB11D5D968C91928D9F5F9F7323
:10052000928F90E008958FEF9FEF0895FC01918DD9
:10053000828D981731F0828DE80FF11D858D90E046
:1005400008958FEF9FEF0895FC01918D228D892FE3
:1005500090E0805C9F4F821B91098F7399270895CB
:1005600082E792E00E94A40221E0892B09F420E0B6
:10057000822F0895FC01A48DA80FB92FB11DA35A95
:10058000BF4F2C91848D90E001968F739927848FB3
:10059000A689B7892C93A089B1898C9183708064D6
:1005A0008C93938D848D981306C00288F389E02D77
:1005B00080818F7D80830895EF92FF920F931F9328
:1005C000CF93DF93EC0181E0888F9B8D8C8D981306
:1005D0001AC0E889F989808185FF15C09FB7F89412
:1005E000EE89FF896083E889F9898081837080645E
:1005F00080839FBF81E090E0DF91CF911F910F91A9
:10060000FF90EF900895F62E0B8D10E00F5F1F4FB7
:100610000F731127E02E8C8D8E110CC00FB607FCC6
:10062000FACFE889F989808185FFF5CFCE010E9454
:10063000BA02F1CFEB8DEC0FFD2FF11DE35AFF4F06
:10064000F0829FB7F8940B8FEA89FB8980818062E2
:10065000CFCFCF93DF93EC01888D8823B9F0AA899F
:10066000BB89E889F9898C9185FD03C0808186FD6D
:100670000DC00FB607FCF7CF8C9185FFF2CF8081BC
:1006800085FFEDCFCE010E94BA02E9CFDF91CF9175
:10069000089580E090E0892B29F00E94B00281113A
:1006A0000E94000080E090E0892B49F080E090E01B
:1006B000892B29F00E94000081110E94000080E037
:1006C00090E0892B49F080E090E0892B29F00E948E
:1006D000000081110E94000080E090E0892B49F029
:1006E00080E090E0892B29F00E94000081110C9499
:1006F000000008952091660230916702281739079B
:1007000071F49091640280916502981741F0E09134
:100710006402F0E0EC5DFD4F808190E008958FEF82
:100720009FEF08950895EF92FF920F931F93CF9339
:10073000DF93DC015C96ED90FC905D97E114F10491
:1007400079F481E090E013969C938E93129790E059
:1007500080E0DF91CF911F910F91FF90EF9008956E
:100760005196ED91FC91529750968C915097982FFD
:1007700090950FB75E962C915E97122F127021FD07
:100780006095F8942081112319F1282B2083E7012B
:100790002197F1F728E0462F50E0308160FF1AC022
:1007A000382B3083E7012197F1F7BA0175956795EA
:1007B000215089F7112381F08081892380830FBF25
:1007C0005C968D919C910197F1F781E090E0C1CF0B
:1007D0002923DCCF3923E5CF9081892BEFCF2091DE
:1007E0006602309167022817390761F4809165022B
:1007F0002091640290E0805C9F4F821B91098F736F
:100800009927089590E080E0089520916602309144
:10081000670228173907B9F4909164028091650244
:10082000981789F0E0916402F0E0EC5DFD4F808163
:100830002091640230E02F5F3F4F2F7333272093C6
:10084000640290E008958FEF9FEF089590E080E0BC
:100850000895FC018081823079F018F4813031F004
:100860000895833079F0843099F0089570E07093A2
:10087000890060938800089570E070939D006093F4
:100880009C00089570E07093A9006093A8000895FB
:1008900070E070939900609398000895FC01808146
:1008A000823069F028F423E092E0813051F008951D
:1008B000833011F126E090E0843019F0089524E0AF
:1008C00091E06230E1F0643079F1613009F03FC0CD
:1008D00041E050E0BA0101C0660F9A95EAF78091B5
:1008E0000F03862B01C0440F2A95EAF74095482351
:1008F00040930F030C94030227E095E0E2CF41E020
:1009000050E0BA0102C0660F771F9A95E2F7CB015B
:10091000809590910F03892301C0440F2A95EAF72F
:10092000842B80930F03E6CF41E050E0FA0102C030
:10093000EE0FFF1F9A95E2F7CF0101C0440F2A95F1
:10094000EAF7842B809590910F038923EACF0895CD
:100950008F929F92AF92BF920F931F93CF93DF938B
:10096000CDB7DEB7A1970FB6F894DEBF0FBECDBFEF
:1009700019A2423008F44AE08E010F5D1F4F842E09
:10098000912CB12CA12CA50194010E94D109E62F34
:10099000B901CA01EA3044F5E05DD801EE938D015A
:1009A000232B242B252B79F790E080E0109769F01A
:1009B000FD0101900020E9F73197AF014A1B5B0B65
:1009C000BD0182E792E00E944602A1960FB6F8941C
:1009D000DEBF0FBECDBFDF91CF911F910F91BF90B2
:1009E000AF909F908F900895E95CD7CF1F920F92A0
:1009F0000FB60F9211242F933F938F939F93AF9332
:100A0000BF9380916E0290916F02A0917002B0919D
:100A1000710230916D0223E0230F2D3758F50196B6
:100A2000A11DB11D20936D0280936E0290936F0201
:100A3000A0937002B09371028091690290916A0252
:100A4000A0916B02B0916C020196A11DB11D809323
:100A5000690290936A02A0936B02B0936C02BF91FB
:100A6000AF919F918F913F912F910F900FBE0F905B
:100A70001F90189526E8230F0296A11DB11DD2CF15
:100A80001F920F920FB60F9211240BB60F922F9355
:100A90003F934F935F936F937F938F939F93AF9306
:100AA000BF93EF93FF9382E792E00E94BA02FF9117
:100AB000EF91BF91AF919F918F917F916F915F91D6
:100AC0004F913F912F910F900BBE0F900FBE0F9043
:100AD0001F9018951F920F920FB60F9211240BB60C
:100AE0000F922F938F939F93EF93FF93E091820246
:100AF000F09183028081E0918802F091890282FD69
:100B00001DC0908180918B028F5F8F7320918C022A
:100B1000821741F0E0918B02F0E0EE58FD4F958F87
:100B200080938B02FF91EF919F918F912F910F9066
:100B30000BBE0F900FBE0F901F9018958081F2CFC3
:100B40001F920F920FB60F9211240BB60F922F9394
:100B50003F934F935F936F937F938F939F93AF9345
:100B6000BF93EF93FF93E0916602F0916702309795
:100B700049F0A685B7858585968D91FF16C09C9115
:100B80008923B1F4FF91EF91BF91AF919F918F9124
:100B90007F916F915F914F913F912F910F900BBE7D
:100BA0000F900FBE0F901F9018959C91892351F7BD
:100BB000A389B4899C918589809589238C938689A2
:100BC00097890197F1F7608D718DA685B785558559
:100BD00038E020E0CB010197F1F7822F90E0959566
:100BE0008795282F4C91452309F02068315091F7C3
:100BF000868D81FD20958091650290E001968F732E
:100C0000992730916402381799F0A0916502B0E0FD
:100C1000AC5DBD4F2C9380936502828D938D0197BF
:100C2000F1F7A389B4898C919589892B8C93AACFEC
:100C3000868D8160868FF1CFCF93DF9390E0FC01AA
:100C4000E25CFD4F249188509E4FFC0184918823E3
:100C5000D1F090E0880F991FFC01EC59FE4FA5914F
:100C6000B491FC01E252FE4FC591D49161110EC0C6
:100C70009FB7F8948C91E22FE0958E238C93288176
:100C8000E223E8839FBFDF91CF9108958FB7F89457
:100C9000EC91E22BEC938FBFF6CFCF93DF931092C2
:100CA00075021092740288EE93E0A0E0B0E08093A9
:100CB000760290937702A0937802B093790224E0B1
:100CC00032E0309373022093720225EC30E03093CF
:100CD0007F0220937E0224EC30E030938102209347
:100CE000800220EC30E0309383022093820221ECDA
:100CF00030E0309385022093840222EC30E0309380
:100D000087022093860226EC30E0309389022093FC
:100D1000880210928B0210928C0210928D02109217
:100D20008E021092100310921C0310921B038093EA
:100D30001D0390931E03A0931F03B093200386E12D
:100D400092E090931A03809319031092300310924B
:100D50002F03109232031092310310923403109239
:100D600033031092360310923503609137036E7F80
:100D70006D7F609337036695617081E0682782E13B
:100D80000E94770161E082E10E941C06E0E5F2E04A
:100D9000E491E0932903EAE0F2E0E491F0E0EE0F61
:100DA000FF1FE252FE4F8591949190932B03809305
:100DB0002A0360E083E10E941C068091370381FDD5
:100DC00004C061E083E10E94770183E18093250301
:100DD000E1E5F2E0E491E0932603EBE0F2E0E49158
:100DE000F0E0EE0FFF1FEC53FE4F8591949190932E
:100DF00028038093270384E080931703C2E0C09305
:100E000018030E942E0280910F038E7B80930F03A4
:100E10000E94030280919000816880939000DAE044
:100E2000D0939100109299001092980061E085E0B3
:100E30000E941C0683E080931503C09316030E9452
:100E40002E0280910F038F7580930F030E9403027F
:100E50008091A00081688093A000D093A10010929F
:100E6000A9001092A80061E086E00E941C06C093D1
:100E70001303C09314030E942E0280910F038D7EF2
:100E800080930F030E9403028091900089608093F9
:100E90009000D093910010929D0010929C0061E010
:100EA00083E00E941C0681E080931103C09312032B
:100EB0000E942E0280910F03837F80930F030E9474
:100EC000030280918000816880938000D09381002C
:100ED000109289001092880061E08BE0DF91CF9141
:100EE0000C941C06789484B5826084BD84B58160BE
:100EF00084BD85B5826085BD85B5816085BD8091E5
:100F00006E00816080936E0010928100809181005C
:100F10008260809381008091810081608093810054
:100F2000809180008160809380008091B100846016
:100F30008093B1008091B00081608093B000809177
:100F400091008260809391008091910081608093F4
:100F50009100809190008160809390008091A10029
:100F600082608093A1008091A10081608093A100A4
:100F70008091A00081608093A00080912101826017
:100F800080932101809121018160809321018091D2
:100F9000200181608093200180917A008460809399
:100FA0007A0080917A00826080937A0080917A0042
:100FB000816080937A0080917A00806880937A00C3
:100FC0001092C10010923403109233031092320336
:100FD000109231031092300310922F038DE991E0AB
:100FE00090933603809335038091250396EF980FF5
:100FF000943048F02EEC280F243028F022EC280FF3
:10100000283008F061C02DEB30E03093300320939E
:101010002F032BE931E030933203209331032CE28C
:1010200031E03093340320933303943050F02EECAE
:10103000280F243030F022EC280FF0E0E0E02830D8
:1010400010F4E8E6F0E02081943028F032EC380F1C
:10105000383008F4F8C031E0232B943048F09EEC8F
:10106000980F943028F08E53F0E0E0E0883010F4D0
:10107000E8E6F0E020832091250336EF320F34308C
:1010800008F4E3C08EEC820F843008F4DEC082ECFA
:10109000820F883008F4DCC090E080E090932D034C
:1010A00080932C03343008F0D6C02650330B81E0F7
:1010B00001C0880F2A95EAF780932E0380913503AB
:1010C000909136030197F1F78091330390913403A7
:1010D000892B49F1E0916602F091670283E0E931E2
:1010E000F80709F1309739F0A389B4899C91858973
:1010F000809589238C93809137038E7F809337036B
:10110000109265021092640289E193E09093670265
:1011100080936602E0912C03F0912D0380819091E1
:101120002E03892B8083E0918202F091830282E07A
:101130008083E0917E02F0917F021082E091800234
:10114000F09181028FEC808310928A02E0918602F6
:10115000F091870286E08083E0918402F09185021D
:10116000808180618083E0918402F091850280819A
:1011700088608083E0918402F0918502808180689C
:101180008083E0918402F091850280818F7D80834D
:1011900089E193E00E94EF036C01990FEE08FF08CC
:1011A0004AE0C701B601F7FE0DC06DE282E792E0AA
:1011B0000E94DC0266277727CB016C197D098E0916
:1011C0009F094AE00E94A80489E193E00E94EF038E
:1011D00018161906ACF589E193E00E940504C82FA2
:1011E0008093680260E087E193E00E94290464E054
:1011F00087E193E00E944E0460E085E193E00E9465
:10120000290464E085E193E00E944E0460E081E1FE
:1012100093E00E94290464E081E193E00E944E047F
:1012200060E083E193E00E94290464E083E193E0BD
:101230000E944E04C634D1F11CF5C23409F45FC0DB
:101240000E944903C1CF34E007CF8BE690E026CF60
:101250008DE690E023CF88E0223309F42DCF84E09F
:10126000233309F429CF82E0243309F425CF82EC1B
:10127000820F883018F42E53330B19CF81E01CCF26
:10128000CC3409F461C0C235D9F668EC87E193E04B
:101290000E94290461E087E193E00E944E0468EC1B
:1012A00085E193E00E94290461E039C068EC87E1A0
:1012B00093E00E94290461E087E193E00E944E04DC
:1012C00068EC85E193E00E94290461E085E193E008
:1012D0000E944E0468EC81E193E00E94290461E0E1
:1012E00081E193E00E944E0468EC83E193E00E9468
:1012F000290461E083E193E00E944E04A1CF68ECF1
:1013000087E193E00E94290462E087E193E00E9474
:101310004E0468EC85E193E00E94290462E085E1D7
:1013200093E00E944E0468EC81E193E00E9429045E
:1013300062E081E193E00E944E0468EC83E193E077
:101340000E94290462E0D6CF68EC87E193E00E9416
:10135000290462E087E193E00E944E0468EC85E195
:1013600093E00E94290462E0B1CF86E192E090937D
:101370001A03809319038091660290916702895144
:10138000934071F4E0912C03F0912D0390818091B2
:101390002E03809589238083109267021092660243
:1013A0000895A1E21A2EAA1BBB1BFD010DC0AA1FA6
:1013B000BB1FEE1FFF1FA217B307E407F50720F0BE
:1013C000A21BB30BE40BF50B661F771F881F991F39
:1013D0001A9469F760957095809590959B01AC0182
:1013E000BD01CF010895EE0FFF1F881F8BBF07902F
:1013F000F691E02D199411E0C3E4D1E000E006C0BD
:10140000802FFE010E94F3092196011DC434D107EB
:0A14100080E00807A9F7F894FFCF69
:10141A0000000000DC02460273022903A4028202D1
:10142A009602000000009303460226049203EF038B
:04143A0005047A0328
:00000001FF
