:100000000C9444010C9475010C9475010C947501C9
:100010000C9475010C9475010C9475010C94750188
:100020000C9475010C9495040C9495040C9495040F
:100030000C9475010C9475010C9475010C94750168
:100040000C9475010C9475010C9475010C94750158
:100050000C9475010C9475010C9475010C94EB03D0
:100060000C9475010C945F040C9435040C94750188
:100070000C9475010C9475010C9475010C94750128
:100080000C9475010C9475010C9475010C94750118
:100090000C9475010C9475010C9475010C94750108
:1000A0000C9475010C9475010C9475010C947501F8
:1000B0000C9475010C9475010C9475010C947501E8
:1000C0000C9475010C9475010C9475010C947501D8
:1000D0000C9475010C9475010C9475010C947501C8
:1000E0000C9475010C9441050C9479030C948508CB
:1000F0000C9467050C9463030C9406030C94EE02B5
:100100000C949D020C9477050C94CE050C948505F7
:100110000C94BA010C9471050C9407030C945002D2
:100120000C948D050C9493050C9418020C94E70123
:100130000C946D050C94F6010C9489050C946405DF
:100140000C9460050C9497050C945C050C940A02C1
:100150000C9458050C949A030C947F050C947B0521
:100160000C94460500002100240027002A002D00E1
:100170003000330001010000040107010A01000002
:100180000A0B02090C0D0E08070304010000000011
:10019000000000000000000000000000000000005F
:1001A000000000000000000000001211100000001C
:1001B000000000000000000000000000000000003F
:1001C00000000000000020002300260029002C0071
:1001D0002F003200000100000301060109010000A8
:1001E0002200250028002B002E00310034000201DF
:1001F0000000050108010B010505050507050808B4
:100200000808020202020A0A0808040404040101A0
:1002100001010101010103030303030303030407B5
:1002200007070C0C0C0C0C0C0C0C0202020206064C
:100230000606060606060B0B0B0B0B0B0B0B01023F
:1002400010202008081020401020408002010201E8
:1002500008040201010204081020408080402010A0
:1002600008040201800402018040201008040201F9
:100270000804020101020408102040800102040861
:1002800010204080CE05850811241FBECFEFD1E29B
:10029000DEBFCDBF00E00CBF12E0A0E0B2E0EAEBB1
:1002A000F1E100E00BBF02C007900D92A432B1074C
:1002B000D9F723E0A4E2B2E001C01D92A733B20750
:1002C000E1F711E0C3E4D1E000E006C021970109A5
:1002D000802FFE010E94C308C234D10780E00807C6
:1002E000A9F70E94F3060C94CB080C940000CF935E
:1002F000DF9360E08CE00E94110560E088E00E94DE
:100300001105C7E0D0E060E084E00E941105809113
:100310000E0390E00C2E02C0959587950A94E2F7A3
:1003200061E080FF60E088E00E94110561E084E008
:100330000E941105219738F761E08CE0DF91CF91A1
:100340000C94110561E08CE00E949D0561E087E05E
:100350000E949D0561E088E00E949D0561E084E0C7
:100360000E949D0510920E030E94770160E087E0D5
:100370000C941105AF92BF92CF92DF92EF92FF9251
:100380000F931F93CF93DF936C017B018B01040FBD
:10039000151FEB015E01AE18BF08C017D10759F059
:1003A0006991D601ED91FC910190F081E02DC6019B
:1003B0001995892B79F7C501DF91CF911F910F9185
:1003C000FF90EF90DF90CF90BF90AF900895FC0129
:1003D000538D448D252F30E0842F90E0821B930BAA
:1003E000541710F0CF96089501970895FC01918D50
:1003F000828D981761F0A28DAE0FBF2FB11D5D9653
:100400008C91928D9F5F9F73928F90E008958FEFF4
:100410009FEF0895FC01918D828D981731F0828DA8
:10042000E80FF11D858D90E008958FEF9FEF0895FF
:10043000FC01918D228D892F90E0805C9F4F821B63
:1004400091098F739927089581E792E00E9418021D
:1004500021E0892B09F420E0822F0895FC01A48D6E
:10046000A80FB92FB11DA35ABF4F2C91848D90E0D6
:1004700001968F739927848FA689B7892C93A089B9
:10048000B1898C91837080648C93938D848D981343
:1004900006C00288F389E02D80818F7D80830895D6
:1004A000EF92FF920F931F93CF93DF93EC0181E0C4
:1004B000888F9B8D8C8D98131AC0E889F98980816B
:1004C00085FF15C09FB7F894EE89FF896083E8899E
:1004D000F98980818370806480839FBF81E090E090
:1004E000DF91CF911F910F91FF90EF900895F62E1D
:1004F0000B8D10E00F5F1F4F0F731127E02E8C8DB7
:100500008E110CC00FB607FCFACFE889F9898081FB
:1005100085FFF5CFCE010E942E02F1CFEB8DEC0FBF
:10052000FD2FF11DE35AFF4FF0829FB7F8940B8F18
:10053000EA89FB8980818062CFCFCF93DF93EC0182
:10054000888D8823B9F0AA89BB89E889F9898C91BB
:1005500085FD03C0808186FD0DC00FB607FCF7CF77
:100560008C9185FFF2CF808185FFEDCFCE010E9477
:100570002E02E9CFDF91CF91089580E090E0892BA2
:1005800029F00E94240281110E94000080E090E086
:10059000892B49F080E090E0892B29F00E9400002F
:1005A00081110E94000080E090E0892B49F080E0FA
:1005B00090E0892B29F00E94000081110E94000028
:1005C00080E090E0892B49F080E090E0892B29F0D1
:1005D0000E94000081110C94000008952091660291
:1005E000309167022817390771F490916402809165
:1005F0006502981741F0E0916402F0E0EC5DFD4F78
:10060000808190E008958FEF9FEF08950895EF9215
:10061000FF920F931F93CF93DF93DC015C96ED90D5
:10062000FC905D97E114F10479F481E090E0139679
:100630009C938E93129790E080E0DF91CF911F9171
:100640000F91FF90EF9008955196ED91FC91529784
:1006500050968C915097982F90950FB75E962C914D
:100660005E97122F127021FD6095F894208111235E
:1006700019F1282B2083E7012197F1F728E0462F75
:1006800050E0308160FF1AC0382B3083E70121979A
:10069000F1F7BA0175956795215089F7112381F01B
:1006A0008081892380830FBF5C968D919C910197F7
:1006B000F1F781E090E0C1CF2923DCCF3923E5CFEA
:1006C0009081892BEFCF2091660230916702281725
:1006D000390761F4809165022091640290E0805CAA
:1006E0009F4F821B91098F739927089590E080E0B6
:1006F0000895209166023091670228173907B9F4EE
:100700009091640280916502981789F0E0916402EB
:10071000F0E0EC5DFD4F80812091640230E02F5FBE
:100720003F4F2F7333272093640290E008958FEF9B
:100730009FEF089590E080E008958F929F92AF928E
:10074000BF920F931F93CF93DF93CDB7DEB7A197DF
:100750000FB6F894DEBF0FBECDBF19A2423008F429
:100760004AE08E010F5D1F4F842E912CB12CA12CDD
:10077000A50194010E94A108E62FB901CA01EA303F
:1007800044F5E05DD801EE938D01232B242B252B1E
:1007900079F790E080E0109769F0FD01019000206A
:1007A000E9F73197AF014A1B5B0BBD0181E792E08E
:1007B0000E94BA01A1960FB6F894DEBF0FBECDBF5E
:1007C000DF91CF911F910F91BF90AF909F908F902D
:1007D0000895E95CD7CF1F920F920FB60F921124A4
:1007E0002F933F938F939F93AF93BF9380916D020D
:1007F00090916E02A0916F02B091700230916C02E4
:1008000023E0230F2D3758F50196A11DB11D20932C
:100810006C0280936D0290936E02A0936F02B0936E
:1008200070028091680290916902A0916A02B09171
:100830006B020196A11DB11D80936802909369021D
:10084000A0936A02B0936B02BF91AF919F918F9179
:100850003F912F910F900FBE0F901F90189526E893
:10086000230F0296A11DB11DD2CF1F920F920FB67A
:100870000F9211240BB60F922F933F934F935F93D8
:100880006F937F938F939F93AF93BF93EF93FF9358
:1008900081E792E00E942E02FF91EF91BF91AF910C
:1008A0009F918F917F916F915F914F913F912F9188
:1008B0000F900BBE0F900FBE0F901F9018951F92B8
:1008C0000F920FB60F9211240BB60F922F938F93A6
:1008D0009F93EF93FF93E0918102F09182028081D8
:1008E000E0918702F091880282FD1DC09081809185
:1008F0008A028F5F8F7320918B02821741F0E09103
:100900008A02F0E0EF58FD4F958F80938A02FF91A5
:10091000EF919F918F912F910F900BBE0F900FBE73
:100920000F901F9018958081F2CF1F920F920FB6F3
:100930000F9211240BB60F922F933F934F935F9317
:100940006F937F938F939F93AF93BF93EF93FF9397
:10095000E0916602F0916702309749F0A685B7856D
:100960008585968D91FF16C09C918923B1F4FF91E6
:10097000EF91BF91AF919F918F917F916F915F9117
:100980004F913F912F910F900BBE0F900FBE0F9084
:100990001F9018959C91892351F7A389B4899C9144
:1009A0008589809589238C93868997890197F1F7AA
:1009B000608D718DA685B785558538E020E0CB0127
:1009C0000197F1F7822F90E095958795282F4C910C
:1009D000452309F02068315091F7868D81FD2095DF
:1009E0008091650290E001968F739927309164029F
:1009F000381799F0A0916502B0E0AC5DBD4F2C9323
:100A000080936502828D938D0197F1F7A389B48954
:100A10008C919589892B8C93AACF868D8160868F46
:100A2000F1CF282F30E0F901E258FE4F9491F901FF
:100A3000E25CFD4F449128503E4FF901249122235E
:100A400009F435C0992311F191509231F8F4E92F4E
:100A5000F0E08827E15DFA4F8F4F0C94C3086005E2
:100A60006405410558055C05460567056D0571057A
:100A700077057B057F058505890546058D05930569
:100A80009705809180008F7780938000E22FF0E0BF
:100A9000EE0FFF1FE252FE4FA591B4918FB7F8946D
:100AA000EC91611148C040954E234C938FBF08953F
:100AB000809180008F7DE8CF80918000877FE4CF98
:100AC00084B58F7784BDE2CF84B58F7DFBCF8091D5
:100AD000B0008F778093B000D9CF8091B0008F7D28
:100AE000F9CF809190008F7780939000CFCF809145
:100AF00090008F7DF9CF80919000877FF5CF809116
:100B0000A0008F778093A000C1CF8091A0008F7D3F
:100B1000F9CF8091A000877FF5CF809120018F775A
:100B200080932001B3CF809120018F7DF9CF8091F8
:100B30002001877FF5CF4E2BB8CFCF93DF9390E086
:100B4000FC01E25CFD4F249188509E4FFC01849192
:100B50008823D1F090E0880F991FFC01EC59FE4FDB
:100B6000A591B491FC01E252FE4FC591D49161115F
:100B70000EC09FB7F8948C91E22FE0958E238C9352
:100B80002881E223E8839FBFDF91CF9108958FB73B
:100B9000F894EC91E22BEC938FBFF6CFCF93DF93D9
:100BA000109274021092730288EE93E0A0E0B0E01D
:100BB0008093750290937602A0937702B0937802A7
:100BC00024E032E0309372022093710225EC30E091
:100BD00030937E0220937D0224EC30E0309380023B
:100BE00020937F0220EC30E0309382022093810238
:100BF00021EC30E0309384022093830222EC30E039
:100C0000309386022093850226EC30E030938802F0
:100C10002093870210928A0210928B0210928C020B
:100C200010928D0210920F0310921B0310921A0360
:100C300080931C0390931D03A0931E03B0931F0386
:100C400086E192E0909319038093180310922F038A
:100C500010922E031092310310923003109233033E
:100C600010923203109235031092340360913603D0
:100C70006E7F6D7F609336036695617081E06827B3
:100C800082E10E94110561E082E10E949D05E0E59C
:100C9000F2E0E491E0932803EAE0F2E0E491F0E08E
:100CA000EE0FFF1FE252FE4F8591949190932A031D
:100CB0008093290360E083E10E949D0580913603C3
:100CC00081FD04C061E083E10E94110583E180930E
:100CD0002403E1E5F2E0E491E0932503EBE0F2E0A8
:100CE000E491F0E0EE0FFF1FEC53FE4F85919491DD
:100CF000909327038093260384E080931603C2E039
:100D0000C09317030E94A20180910E038E7B8093F3
:100D10000E030E947701809190008168809390007B
:100D2000DAE0D0939100109299001092980061E05F
:100D300085E00E949D0583E080931403C093150312
:100D40000E94A20180910E038F7580930E030E9472
:100D500077018091A00081688093A000D093A100CA
:100D60001092A9001092A80061E086E00E949D0503
:100D7000C0931203C09313030E94A20180910E033B
:100D80008D7E80930E030E94770180919000896090
:100D900080939000D093910010929D0010929C003F
:100DA00061E083E00E949D0581E080931003C09381
:100DB00011030E94A20180910E03837F80930E0392
:100DC0000E94770180918000816880938000D09399
:100DD0008100109289001092880061E08BE0DF9121
:100DE000CF910C949D05789484B5826084BD84B5C0
:100DF000816084BD85B5826085BD85B5816085BD16
:100E000080916E00816080936E00109281008091CD
:100E10008100826080938100809181008160809355
:100E20008100809180008160809380008091B1007A
:100E300084608093B1008091B00081608093B000A5
:100E400080919100826080939100809191008160F7
:100E500080939100809190008160809390008091B8
:100E6000A10082608093A1008091A10081608093A5
:100E7000A1008091A00081608093A0008091210159
:100E80008260809321018091210181608093210102
:100E90008091200181608093200180917A0084609C
:100EA00080937A0080917A00826080937A008091AA
:100EB0007A00816080937A0080917A0080688093C4
:100EC0007A001092C10010923303109232031092F4
:100ED00031031092300310922F0310922E038DE9EC
:100EE00091E090933503809334038091240396EF2F
:100EF000980F943048F02EEC280F243028F022EC84
:100F0000280F283008F061C02DEB30E030932F031C
:100F100020932E032BE931E03093310320933003EB
:100F20002CE231E03093330320933203943050F0BD
:100F30002EEC280F243030F022EC280FF0E0E0E017
:100F4000283010F4E8E6F0E02081943028F032EC0C
:100F5000380F383008F4BCC031E0232B943048F00F
:100F60009EEC980F943028F08E53F0E0E0E088304B
:100F700010F4E8E6F0E020832091240336EF320FEE
:100F8000343008F4A7C08EEC820F843008F4A2C07D
:100F900082EC820F883008F4A0C090E080E090934B
:100FA0002C0380932B03343008F09AC02650330B67
:100FB00081E001C0880F2A95EAF780932D03809184
:100FC0003403909135030197F1F7809132039091AA
:100FD0003303892B49F1E0916602F091670283E0C7
:100FE000E831F80709F1309739F0A389B4899C9169
:100FF0008589809589238C93809136038E7F809399
:101000003603109265021092640288E193E0909397
:10101000670280936602E0912B03F0912C0380819C
:1010200090912D03892B8083E0918102F0918202BF
:1010300082E08083E0917D02F0917E021082E09157
:101040007F02F09180028FEC808310928902E09100
:101050008502F091860286E08083E0918302F09120
:101060008402808180618083E0918302F091840218
:10107000808188608083E0918302F0918402808186
:1010800080688083E0918302F091840280818F7D6B
:10109000808388E193E00E9463036C01990FEE085E
:1010A000FF084AE0C701B601F7FE0DC06DE281E717
:1010B00092E00E94500266277727CB016C197D09C8
:1010C0008E099F094AE00E949D030E94BD02FDCF48
:1010D00034E043CF8BE690E062CF8DE690E05FCFC7
:1010E00088E0223309F469CF84E0233309F465CF23
:1010F00082E0243309F461CF82EC820F883018F447
:101100002E53330B55CF81E058CF86E192E0909378
:1011100019038093180380916602909167028851A9
:10112000934071F4E0912B03F0912C039081809116
:101130002D038095892380831092670210926602A6
:101140000895A1E21A2EAA1BBB1BFD010DC0AA1F08
:10115000BB1FEE1FFF1FA217B307E407F50720F020
:10116000A21BB30BE40BF50B661F771F881F991F9B
:101170001A9469F760957095809590959B01AC01E4
:10118000BD01CF010895EE0FFF1F881F8BBF079091
:10119000F691E02D199411E0C3E4D1E000E006C01F
:1011A000802FFE010E94C3082196011DC434D1077F
:0A11B00080E00807A9F7F894FFCFCC
:1011BA00000000005002BA01E7019D021802F60180
:1011CA000A02000000000703BA019A030603630338
:0411DA007903EE02A5
:00000001FF
