:100000000C940A010C942B010C942B010C942B01E1
:100010000C942B010C942B010C942B010C942B01B0
:100020000C942B010C942B010C942B010C942B01A0
:100030000C942B010C942B010C942B010C942B0190
:100040000C942B010C94AC030C942B010C942B01FD
:100050000C942B010C942B010C942B010C94D802C2
:100060000C942B010C942B010C942B010C942B0160
:100070000C942B010C942B010C942B010C942B0150
:100080000C947E030C942B010C942B010C942B01EB
:100090000C942B010C942B010C942B010C94DA037F
:1000A0000C942B010C942B010C9450030C942B01F9
:1000B0000C942B010C942B010C942B010C94220317
:1000C0000C942B010C942B010C942B010C942B0100
:1000D0000C942B010C942B010C942B010C942B01F0
:1000E0000C942B010C94AF010C9478010C94A10199
:1000F0000C94A9010C949B010C948D010C94620149
:100100000C9497010C9483010C94B3010C9493010B
:100110000C9480010C947C010C9489010C94740162
:100120000C945D010C94A50100002200250028001C
:100130002B002E00310034000201000005010801EF
:100140000B0105050505070508080808020202025B
:100150000A0A080804040404010101010101010163
:100160000303030303030303040707070C0C0C0C2E
:100170000C0C0C0C02020202060606060606060617
:100180000B0B0B0B0B0B0B0B0102102020080810A4
:1001900020401020408002010201080402010102F7
:1001A00004081020408080402010080402018004D0
:1001B000020180402010080402010804020101022B
:1001C0000408102040800102040810204080000034
:1001D0000A0B02090C0D0E080703040100000000C1
:1001E000000000000000000000000000000000000F
:1001F00000000000000000000000121110000000CC
:1002000000000000000000000000000000000000EE
:100210000000000011241FBECFEFD1E2DEBFCDBF32
:1002200000E00CBF12E0A0E0B2E0E8EFFAE000E08E
:100230000BBF02C007900D92A030B107D9F723E0A1
:10024000A0E0B2E001C01D92AE30B207E1F70E941B
:10025000FA040C947A050C940000282F30E0F90180
:10026000E253FE4F9491F901E857FE4F44912E5B03
:100270003E4FF9012491222309F435C0992311F14D
:1002800091509231F8F4E92FF0E08827E55BFE4FBA
:100290008F4F0C9472057C0180015D01740178011F
:1002A0006201830189018D01930197019B01A101E5
:1002B000A5016201A901AF01B301809180008F7790
:1002C00080938000E22FF0E0EE0FFF1FE85DFE4F0D
:1002D000A591B4918FB7F894EC91611148C0409505
:1002E0004E234C938FBF0895809180008F7DE8CF7F
:1002F00080918000877FE4CF84B58F7784BDE2CF83
:1003000084B58F7DFBCF8091B0008F778093B00054
:10031000D9CF8091B0008F7DF9CF809190008F77F9
:1003200080939000CFCF809190008F7DF9CF809106
:100330009000877FF5CF8091A0008F778093A000F9
:10034000C1CF8091A0008F7DF9CF8091A000877FE1
:10035000F5CF809120018F7780932001B3CF8091DA
:1003600020018F7DF9CF80912001877FF5CF4E2B23
:10037000B8CFCF93DF93DB01EA01FC01EF5FFC4FC5
:1003800040815CE0589F9001599F300D112447FF38
:100390001CC011961C921E9280818F5F8083808189
:1003A000A901480F511D87FD5A9557FF03C0808151
:1003B0008C30ACF08D919C911197049680349C49BF
:1003C00038F18D919C91049625C08081A901480F38
:1003D000511D87FD5A9557FFDFCF8081DDCF8D916D
:1003E0009C914081240F311D47FD3A95D901AA0FF8
:1003F000BB1FA20FB31FAF58BD4F11962D913C915B
:10040000820F931F998388838081DF91CF91089514
:1004100080E49CE9998388838FEF8083F6CF2091D5
:100420002702260F3327331F21323105ECF42091A8
:100430004B02FC0190E080E0243069F082E00895F6
:10044000A09127022191AC01495F5D4FA40FB52F08
:10045000B11D2C930196861798F380912702680F9F
:100460006093270280E0089581E0089508958FEF5A
:100470009FEF08958FEF9FEF08958091000290E025
:100480009195819591090895CF93DF93CB01EA016E
:10049000642F0E940F02CE01DF91CF910895CF9378
:1004A000DF931F92CDB7DEB7698361E0CE0101967D
:1004B0000E940F0281E090E00F90DF91CF910895AC
:1004C00090E080E008951F93CF93DF9385ED8093B4
:1004D000BC008091030290910402A0910502B091AA
:1004E00006020796A11DB11D23E0B695A795979525
:1004F00087952A95D1F72091BC0024FD03C0109266
:100500004B0252C0409103025091040260910502D7
:1005100070910602452B462B472B69F30097A105E6
:10052000B10541F02AE22A95F1F700C00197A1092F
:10053000B109E1CF80910202C1E0C093010288239A
:1005400099F1D091B8001091BA008091BC008A7BDB
:100550008093BC0060E084E10E942D0160E085E1B1
:100560000E942D0110924B02C0934D0210924C023A
:1005700061E084E10E942D0161E085E10E942D018E
:100580008091B9008E7F8093B9008091B9008D7FF2
:100590008093B90088E48093B80085E48093BC0020
:1005A0001093BA00D093B800DF91CF911F910895B6
:1005B0001F920F920FB60F9211242F933F938F9398
:1005C0009F93AF93BF9380910A0390910B03A091E7
:1005D0000C03B0910D033091090323E0230F2D3755
:1005E00058F50196A11DB11D2093090380930A03BC
:1005F00090930B03A0930C03B0930D03809105031C
:1006000090910603A0910703B09108030196A11DE4
:10061000B11D8093050390930603A0930703B09345
:100620000803BF91AF919F918F913F912F910F90B0
:100630000FBE0F901F90189526E8230F0296A11D5C
:10064000B11DD2CF1F920F920FB60F9211240BB68D
:100650000F922F933F934F935F936F937F938F935B
:100660009F93AF93BF93EF93FF9348E251E064E20F
:1006700071E090E080E00E94B901FF91EF91BF919D
:10068000AF919F918F917F916F915F914F913F912A
:100690002F910F900BBE0F900FBE0F901F901895CB
:1006A0001F920F920FB60F9211240BB60F922F9339
:1006B0003F934F935F936F937F938F939F93AF93EA
:1006C000BF93EF93FF9348EA50E064EA70E083E061
:1006D00090E00E94B901FF91EF91BF91AF919F917E
:1006E0008F917F916F915F914F913F912F910F90DB
:1006F0000BBE0F900FBE0F901F9018951F920F9278
:100700000FB60F9211240BB60F922F933F934F9376
:100710005F936F937F938F939F93AF93BF93EF9369
:10072000FF9348E950E064E970E082E090E00E94C5
:10073000B901FF91EF91BF91AF919F918F917F91FF
:100740006F915F914F913F912F910F900BBE0F9042
:100750000FBE0F901F9018951F920F920FB60F9219
:1007600011240BB60F922F933F934F935F936F9388
:100770007F938F939F93AF93BF93EF93FF9348E83B
:1007800050E064E870E081E090E00E94B901FF91E0
:10079000EF91BF91AF919F918F917F916F915F91F9
:1007A0004F913F912F910F900BBE0F900FBE0F9066
:1007B0001F9018951F920F920FB60F9211240BB62F
:1007C0000F922F933F934F935F936F937F938F93EA
:1007D0009F93AF93BF93EF93FF938091B900887F6E
:1007E000803609F44DC008F040C0883209F4A7C033
:1007F00028F5803109F49BC0C8F4882309F4F7C0B8
:10080000883009F494C0FF91EF91BF91AF919F910F
:100810008F917F916F915F914F913F912F910F90A9
:100820000BBE0F900FBE0F901F901895883109F4E2
:1008300086C0803241F780934A0214C0803409F4A4
:100840009BC040F48033B9F38833E9F680934A02C1
:1008500085ECAEC0803509F483C0883509F494C0B6
:10086000883489F60E946302CECF883909F48AC0A1
:1008700038F5883729F050F4883611F0803719F6AA
:1008800083E080934B021092490255C0883809F4E6
:1008900079C0803919F0803809F0B5CF80914902CC
:1008A000803208F06FC0E091490281E08E0F8093A2
:1008B00049028091BB00F0E0E75DFD4F80833BC0C3
:1008C000803B39F0D0F4803A09F477C0883A09F0D7
:1008D0009ACF84E080934B02109228021092270254
:1008E000F0E0E0E019958091270281110FC081E0CE
:1008F000809327021092070209C0803C09F4A8CF18
:10090000883C09F4A5CF883B09F07DCFE09128020F
:1009100081E08E0F80932802F0E0E95FFD4F808137
:100920008093BB00909128028091270229C080917A
:1009300070028093BB0085EC8093BC0064CF9091E3
:100940006F0280916E02981758F5E0916F0281E076
:100950008E0F80936F02F0E0E25BFD4F8081E9CF64
:10096000E0916F0281E08E0F80936F028091BB0057
:10097000F0E0E25BFD4F808390916F0280916E0208
:100980009817C8F285E8D8CFE0916F0281E08E0F0A
:1009900080936F028091BB00F0E0E25BFD4F8083AB
:1009A00080914D0281115ECF81E080934C0284EAF8
:1009B0008093BC0010924B0226CF85EC8093BC0044
:1009C00010924B0280914902803230F4E09149024A
:1009D000F0E0E75DFD4F10826091490270E089E22E
:1009E00092E0F0E0E0E01995109249020CCF1092ED
:1009F0004A0238CF789484B5826084BD84B5816022
:100A000084BD85B5826085BD85B5816085BD8091D9
:100A10006E00816080936E00109281008091810051
:100A20008260809381008091810081608093810049
:100A3000809180008160809380008091B10084600B
:100A40008093B1008091B00081608093B00080916C
:100A500091008260809391008091910081608093E9
:100A60009100809190008160809390008091A1001E
:100A700082608093A1008091A10081608093A10099
:100A80008091A00081608093A0008091210182600C
:100A900080932101809121018160809321018091C7
:100AA000200181608093200180917A00846080938E
:100AB0007A0080917A00826080937A0080917A0037
:100AC000816080937A0080917A00806880937A00B8
:100AD0001092C100C0E0D0E02097F1F30E94000026
:100AE000FBCF0895EE0FFF1F881F8BBF0790F69175
:080AF000E02D1994F894FFCFEA
:00000001FF
