:100000000C940D010C943E010C943E010C943E01A5
:100010000C943E010C943E010C943E010C943E0164
:100020000C943E010C943E010C943E010C943E0154
:100030000C943E010C943E010C943E010C943E0144
:100040000C943E010C945A030C943E010C943E0116
:100050000C943E010C943E010C943E010C948602DB
:100060000C943E010C943E010C943E010C943E0114
:100070000C943E010C943E010C943E010C943E0104
:100080000C942C030C943E010C943E010C943E0104
:100090000C943E010C943E010C943E010C943E01E4
:1000A0000C943E010C943E010C94FE020C943E0113
:1000B0000C943E010C943E010C943E010C94D00231
:1000C0000C943E010C943E010C943E010C943E01B4
:1000D0000C943E010C943E010C943E010C943E01A4
:1000E0000C943E010C94A6010C9470010C94B80180
:1000F0000C948B010C94A0010C949C010C94AE0107
:100100000C9475010C94AA010C9493010C94BC01FD
:100110000C9496010C94C2010C94C6010C948F01AE
:100120000C9487010C9488030C94B4010000220005
:10013000250028002B002E003100340002010000B1
:10014000050108010B010505050507050808080854
:10015000020202020A0A080804040404010101015F
:10016000010101010303030303030303040707075A
:100170000C0C0C0C0C0C0C0C0202020206060606FF
:10018000060606060B0B0B0B0B0B0B0B01021020CC
:1001900020080810204010204080020102010804BD
:1001A0000201010204081020408080402010080451
:1001B00002018004020180402010080402010804AA
:1001C00002010102040810204080010204081020EE
:1001D000408000000A0B02090C0D0E080703040101
:1001E000000000000000000000000000000000000F
:1001F00000000000000000000000000000001211DC
:1002000010000000000000000000000000000000DE
:100210000000000000000000880311241FBECFEF83
:10022000D1E2DEBFCDBF00E00CBF12E0A0E0B2E043
:10023000E8E4F8E000E00BBF02C007900D92A030A8
:10024000B107D9F722E0A0E0B2E001C01D92A13AC7
:10025000B207E1F711E0CDE0D1E000E006C0219760
:100260000109802FFE010E941A04CC30D10780E0E2
:100270000807A9F70E94A3030C9422040C94000021
:10028000282F30E0F901EE52FE4F9491F901E45726
:10029000FE4F44912A5B3E4FF9012491222309F439
:1002A00035C0992311F191509231F8F4E92FF0E023
:1002B0008827E25AFE4F8F4F0C941A048F01930146
:1002C000700187018B01750196019C01A001A601B7
:1002D000AA01AE01B401B8017501BC01C201C60199
:1002E000809180008F7780938000E22FF0E0EE0F06
:1002F000FF1FE45DFE4FA591B4918FB7F894EC9188
:10030000611148C040954E234C938FBF0895809152
:1003100080008F7DE8CF80918000877FE4CF84B517
:100320008F7784BDE2CF84B58F7DFBCF8091B00005
:100330008F778093B000D9CF8091B0008F7DF9CFB7
:10034000809190008F7780939000CFCF8091900024
:100350008F7DF9CF80919000877FF5CF8091A000AD
:100360008F778093A000C1CF8091A0008F7DF9CFBF
:100370008091A000877FF5CF809120018F778093B7
:100380002001B3CF809120018F7DF9CF8091200192
:10039000877FF5CF4E2BB8CFAF92BF92CF92DF922F
:1003A000EF92FF920F931F93CF93DF936B017A012C
:1003B000EC01C050DE4F28813CE0389F8001399F1E
:1003C000100D1124A0909D02B12C27FF1FC0FB012E
:1003D0001182108288818F5F888388819801280F1D
:1003E000311D87FD3A95F6012A153B051CF48881DD
:1003F0008C30C4F180819181049680349C4908F44A
:1004000073C0F60180819181049670C08881980143
:10041000280F311D87FD3A952A153B05DCF68881AA
:10042000A801480F511D87FD5A95FA01EE0FFF1FD5
:10043000E40FF51FE35FFD4F808186FFCBCF8881FE
:10044000F801E80FF11D87FDFA95CF01EE0FFF1FB0
:10045000E80FF91FE35FFD4F808160E08F730E941A
:100460004001B8CF808191812881A801420F511DA0
:1004700027FD5A959A01FA01EE0FFF1FE20FF31FB5
:10048000E35FFD4F21813281820F931FF70191833A
:10049000808388819801280F311D87FD3A95F901E5
:1004A000EE0FFF1FE20FF31FE35FFD4F808186FF1A
:1004B00022C08881080F111D87FD1A95F801EE0FE3
:1004C000FF1FE00FF11FE35FFD4F808161E08F733D
:1004D000DF91CF911F910F91FF90EF90DF90CF9020
:1004E000BF90AF900C94400180E49CE9F7019183A8
:1004F00080838FEF8883DF91CF911F910F91FF90C1
:10050000EF90DF90CF90BF90AF9008951F920F9221
:100510000FB60F9211242F933F938F939F93AF9316
:10052000BF938091090290910A02A0910B02B091B1
:100530000C023091080223E0230F2D3758F5019665
:10054000A11DB11D209308028093090290930A0215
:10055000A0930B02B0930C028091040290910502CB
:10056000A0910602B09107020196A11DB11D8093D2
:10057000040290930502A0930602B0930702BF9174
:10058000AF919F918F913F912F910F900FBE0F9040
:100590001F90189526E8230F0296A11DB11DD2CFFA
:1005A0001F920F920FB60F9211240BB60F922F933A
:1005B0003F934F935F936F937F938F939F93AF93EB
:1005C000BF93EF93FF9348E251E064E271E090E063
:1005D00080E00E94CC01FF91EF91BF91AF919F917C
:1005E0008F917F916F915F914F913F912F910F90DC
:1005F0000BBE0F900FBE0F901F9018951F920F9279
:100600000FB60F9211240BB60F922F933F934F9377
:100610005F936F937F938F939F93AF93BF93EF936A
:10062000FF9348EA50E064EA70E083E090E00E94C3
:10063000CC01FF91EF91BF91AF919F918F917F91ED
:100640006F915F914F913F912F910F900BBE0F9043
:100650000FBE0F901F9018951F920F920FB60F921A
:1006600011240BB60F922F933F934F935F936F9389
:100670007F938F939F93AF93BF93EF93FF9348E93B
:1006800050E064E970E082E090E00E94CC01FF91CC
:10069000EF91BF91AF919F918F917F916F915F91FA
:1006A0004F913F912F910F900BBE0F900FBE0F9067
:1006B0001F9018951F920F920FB60F9211240BB630
:1006C0000F922F933F934F935F936F937F938F93EB
:1006D0009F93AF93BF93EF93FF9348E850E064E894
:1006E00070E081E090E00E94CC01FF91EF91BF911A
:1006F000AF919F918F917F916F915F914F913F91BA
:100700002F910F900BBE0F900FBE0F901F9018955A
:1007100080919D02803398F491E0980F90939D0210
:1007200080939E0290E0FC01EE0FFF1FE80FF91F7F
:10073000E35FFD4F88EB9BE09283818308958FEF09
:1007400080939E020895789484B5826084BD84B5B8
:10075000816084BD85B5826085BD85B5816085BDBC
:1007600080916E00816080936E0010928100809174
:1007700081008260809381008091810081608093FC
:100780008100809180008160809380008091B10021
:1007900084608093B1008091B00081608093B0004C
:1007A000809191008260809391008091910081609E
:1007B000809391008091900081608093900080915F
:1007C000A10082608093A1008091A100816080934C
:1007D000A1008091A00081608093A0008091210100
:1007E00082608093210180912101816080932101A9
:1007F0008091200181608093200180917A00846043
:1008000080937A0080917A00826080937A00809150
:100810007A00816080937A0080917A00806880936A
:100820007A001092C100C0E0D0E02097F1F30E945E
:100830000000FBCFEE0FFF1F881F8BBF0790F691C4
:08084000E02D1994F894FFCF9C
:00000001FF
